:100000006CC60000A2C60000A0C600000C94992B8C
:100010009CC600009AC6000098C6000096C6000064
:1000200094C6000092C600000C94E1170C949D1732
:100030000C9420258AC6000088C6000086C60000F1
:1000400084C6000082C6000080C600007EC6000094
:100050007CC600000C94C81878C6000076C6000064
:1000600074C6000072C6000070C600006EC60000B4
:100070006CC600006AC6000068C6000066C60000C4
:1000800064C6000062C6000060C600005EC60000D4
:100090005CC600005AC6000058C6000056C60000E4
:1000A00054C6000052C6000050C6000018001C00D4
:1000B000000004000C0000003700340000000A00BB
:1000C00006000000070016000000090013000000F1
:1000D00010000700000011000600000007000600E5
:1000E0000000202020206162636465666768696A99
:1000F0006B6C6D6E6F707172737475767778797AD8
:1001000031323334353637383930524542545F2D29
:100110003D5B5D5C233B27602C2E2F2020200000C0
:100120000D0009001000130000000000150016006B
:1001300011000700000000001B000A000F0006006D
:1001400000000000000000000000173221520000F3
:100150001400340038003700000000000B000C00D1
:1001600008000400000000000E461C0012001800E9
:10017000000000000000000008522C222452000061
:100180001B011D010601190100000000437E427E93
:10019000417E407E00000000000000002B002A008D
:1001A000000000000000000000000000000000004F
:1001B0001C011D01060119011B0100004F00520026
:1001C00051005000390000004D004B004E004A0025
:1001D000490000000000000000004C002A00000060
:1001E000000000000000000000000000000000000F
:1001F00000000000000000000000000000000000FF
:1002000000000000000000000000000000000000EE
:1002100000000000000000000000000000000000DE
:1002200000000000000000000000000000000000CE
:1002300000000000000000000000000000000000BE
:1002400000000000000000000000000000000000AE
:10025000000000000000000000000000000000009E
:10026000000000000000000000000000000000008E
:10027000000000000000000000000000000000007E
:10028000000000000000000000000000000000006E
:10029000000000000000000000000000000000005E
:1002A0002F0024002500260030000000330021002C
:1002B000220023002E00000035001E001F00200039
:1002C0003100000000000000370027002D00000072
:1002D000000000000000000000000000437E427E9D
:1002E000417E407E000000000000E60000000000AB
:1002F00000000000000000000000000000000000FE
:100300002F022402250226023002000033022102BD
:10031000220223022E02000035021E021F022002CA
:100320003102000000000000260227022D0200001A
:10033000000000000000000000000000E300E200F8
:10034000E000E100000000000000E6000000000006
:100350000000000000000000000000002800000075
:1003600045004000410042004600000044003D00BE
:100370003E003F000000000043003A003B003C000C
:10038000480000000000000065002C002B00000069
:10039000000000000000000000000000E300E20098
:1003A000E000E100000000000000E60000000000A6
:1003B000000000000000000000000000000000003D
:1003C00000001D01060119011B010000E300E2000D
:1003D000E000E10000000000000000000000290033
:1003E00000000000000000000000290028000000BC
:1003F0001C011D01060119011B0100004F005200E4
:1004000051005000390000004D004B004E004A00E2
:10041000490000000000000000004C002A002B00F2
:1004200014001A00080015001700E0000400160070
:10043000070009000A00E1001D001B00060019006A
:100440000500000000000000E2002C0029522A00F4
:10045000130012000C0018001C00340033000F00C1
:100460000E000D000B002946380037003600100042
:1004700011000000000000000052245228002B0050
:1004800014001A00080015002900E0001E001F00DB
:10049000200021002200E100230024002500260086
:1004A0002700000000000000E2002C0000002A00ED
:1004B000130012000C0018001C0034004F00520002
:1004C000510050000B00294638003700360010005C
:1004D000110000000000000000520000280000DAB7
:1004E0000281FFD9F1DB20A4A62EAF00A0C0D3006B
:1004F00000A1C8D30000AED580A81F408D142000F5
:10050000556E6465660041646A7573740052616972
:100510007365004C6F7765720044656661756C7435
:10052000004C617965723A20003A002C206B00780B
:1005300000808182838485868788898A8B8C8D8ED2
:100540008F9091929394A0A1A2A3A4A5A6A7A8A9D5
:10055000AAABACADAEAFB0B1B2B3B4C0C1C2C3C44C
:10056000C5C6C7C8C9CACBCCCDCECFD0D1D2D3D4C3
:100570000000010101010101010101020202020268
:10058000020202020303030303030303040404043B
:100590000404040505050505060606060607070703
:1005A000070708080808090909090A0A0A0B0B0BBA
:1005B0000C0C0C0D0D0D0E0E0E0F0F0F1010111157
:1005C00011121213131414151516161717181819DB
:1005D000191A1A1B1B1C1D1D1E1E1F202021222242
:1005E000232424252626272829292A2B2C2D2D2E85
:1005F0002F30313232333435363738393A3B3C3D9F
:100600003E3F404142434445464748494A4C4D4E8F
:100610004F50515354555658595A5B5D5E5F616255
:1006200064656668696B6C6D6F7072737577787AE4
:100630007B7D7E8082838587888A8C8E8F9193953F
:1006400096989A9C9EA0A2A3A5A7A9ABADAFB1B363
:10065000B5B7BABCBEC0C2C4C6C9CBCDCFD1D4D643
:10066000D8DBDDDFE2E4E7E9EBEEF0F3F5F8FAFDE5
:10067000FF00AF00AE05010980A10185031A01004A
:100680002A8F00160100268F00950175108100C089
:10069000050C0901A101850419012AA002150126F2
:1006A000A002950175108100C005010906A1018510
:1006B00006050719E029E715002501950875018150
:1006C000020507190029EF1500250195F075018134
:1006D0000205081901290595057501910295017515
:1006E000039101C005010906A101050719E029E7E9
:1006F0001500250195087501810295017508810194
:100700000507190029FF150026FF009506750881C9
:1007100000050819012905150025019505750191A8
:1007200002950175039101C009023B00020100A07E
:10073000FA0904000001030101000921110100016F
:100740002244000705810308000109040100010398
:10075000000000092111010001226F00070582033A
:1007600020000112010002000000085346010001B0
:1007700000010200010C0343006F0072006E00656F
:10078000000000100366006F006F007300740061CA
:10079000006E000000040309040000000000003E99
:1007A0005B4F5B3E003E6B4F6B3E001C3E7C3E1C35
:1007B00000183C7E3C18001C577D571C001C5E7FB7
:1007C0005E1C0000183C180000FFE7C3E7FF0000B4
:1007D0001824180000FFE7DBE7FF0030483A060E58
:1007E00000262979292600407F05050700407F055E
:1007F000253F005A3CE73C5A007F3E1C1C0800087D
:100800001C1C3E7F0014227F2214005F5F005F5F8C
:100810000006097F017F00006689956A00606060BC
:1008200060600094A2FFA2940008047E04080010F7
:10083000207E20100008082A1C0800081C2A08082E
:10084000001E10101010000C1E0C1E0C0030383E44
:10085000383000060E3E0E060000000000000000CA
:10086000005F000000000700070000147F147F14E1
:1008700000242A7F2A120023130864620036495696
:10088000205000000807030000001C224100000067
:1008900041221C00002A1C7F1C2A0008083E080870
:1008A00000008070300000080808080800000060A0
:1008B0006000002010080402003E5149453E00003F
:1008C000427F4000007249494946002141494D3369
:1008D000001814127F10002745454539003C4A494D
:1008E000493100412111090700364949493600467E
:1008F0004949291E00000014000000004034000097
:1009000000000814224100141414141400004122A1
:100910001408000201590906003E415D594E007C51
:100920001211127C007F49494936003E4141412263
:10093000007F4141413E007F49494941007F09090B
:100940000901003E41415173007F0808087F000003
:10095000417F4100002040413F01007F08142241B7
:10096000007F40404040007F021C027F007F04085F
:10097000107F003E4141413E007F09090906003ECB
:100980004151215E007F0919294600264949493213
:100990000003017F0103003F4040403F001F204013
:1009A000201F003F4038403F0063140814630003D9
:1009B00004780403006159494D4300007F414141DF
:1009C00000020408102000004141417F00040201A0
:1009D000020400404040404000000307080000209F
:1009E00054547840007F2844443800384444442814
:1009F00000384444287F0038545454180000087EBE
:100A00000902001824241C78007F080404780000E0
:100A1000447D4000002040403D00007F10284400FD
:100A20000000417F4000007C04780478007C0804CA
:100A30000478003844444438007C182424180018F2
:100A40002424187C007C08040408004854545424CE
:100A50000004043F4424003C4040207C001C204013
:100A6000201C003C4030403C004428102844004CEE
:100A70009090907C004464544C440000083641003F
:100A8000000000770000000041360800000201026B
:100A90000402003C2623263C000000000000000069
:100AA000000000000000000000C0E0F0F8F81800AE
:100AB000C0F0FCFEFFFFFFFFFFFFFF7E0000000015
:100AC000000000000080C0E0E0E0E0E0E0E0E0C026
:100AD000800000000080C0E0E0E0E0E0E0E0E0C096
:100AE00080000000E0E0C0C0E0E0E0E00000E0E006
:100AF000C0C0E0E0E0E0E0C0800000000080C0E0B6
:100B0000E0E0E0E0E0E0E0C0800000000000000085
:100B100000000000000000E0F0F0F0E0ECEEF7F381
:100B20007020007C7C7C7E007E7E7E7F7F7F00004C
:100B300080C0E07E5B4F5BFEC00000C000DCD7DE03
:100B4000DEDED7DC00C00000000000000000000076
:100B50000000000000000000000000000000000095
:100B60000000F8FCFEFFE000FFFFFFFFFFFF80FF3B
:100B7000FFFFFFFFFFFFFFFF1F0701000000000056
:100B800000000000FFFFFF8100000000000081C3A3
:100B9000C3C30000FFFFFF8100000000000081FFD1
:100BA000FFFF0000FFFFFF01000000000000FFFF4B
:100BB000FF010000000001FFFFFF0000FFFFFF9D9D
:100BC0001C1C1C1C1C1C9DDFDFDF00000000000043
:100BD000000000000000000F1F3F7F7F7F7F7F3FEE
:100BE0001E0C001F1F1F3F003F3F3F7F7F7F0030D5
:100BF0007B7F7830202030787F3B0003000F7F0F11
:100C00000F0F7F0F00030000000000000000000035
:100C100000000000000000000000000000000000D4
:100C20000000030F1F3F3F3F3F1F1F3F3F7F7F7F5E
:100C30003F3F1F3F7F7F7F7F7C7878381C0F00000D
:100C40000000000000010307070707070707070365
:100C50000100000000010307070707070707070354
:100C60000100000007070700000000000000070760
:100C7000070000000000000707070000000103074D
:100C8000070707070707070301000000000000002F
:100C90000000000000000000000000000000000054
:100CA0000000000000000000000000000000000044
:100CB0000000000000000000000000000000000034
:100CC0000000000000000000000000000000000024
:100CD0000000000000000000000011241FBECFEF44
:100CE000DAE0DEBFCDBF04B603FE18C0809169070D
:100CF00090916A07A0916B07B0916C078730904B79
:100D0000A740B04B59F41092690710926A071092ED
:100D10006B0710926C07E0E0F8E3099512E0A0E0A1
:100D2000B1E0E8EDFBE502C005900D92AC3AB107E9
:100D3000D9F727E0ACEAB2E001C01D92A936B207AC
:100D4000E1F70E9447250C94912D5AC980915D05C9
:100D5000816080935D05089590915505937051F0E1
:100D60008093560560935705493708F048E740934C
:100D70005805ECCF0895482F209151059091080512
:100D800059E0291302C080E0089530E0529FF0013D
:100D9000539FF00D1124E75FFA4F8181681306C05D
:100DA0008081481303C085818111EECF2F5F3F4FB3
:100DB0002770E7CFFC01AC014C5F5F4F8FEF91E3F1
:100DC0002191822728E030E087FF09C0880F89271A
:100DD00021503109C9F7E417F50791F70895880FF5
:100DE000F7CFE8EDF0E080818E7F80831092E20003
:100DF0001092DA001092E100A0EEB0E08C918160D8
:100E00008C9380818F77808319BCA7EDB0E08C91A3
:100E10008E7F8C9380818F7E80831092F30408955F
:100E20002091E4003091E50095E6A9012091EC00C5
:100E3000822F817020FF06C08091E80080FF06C0ED
:100E400080E008952091E80022FD1AC08091FE0400
:100E5000882389F0853089F08091EB0085FD0FC0F3
:100E60002091E4003091E50042175307F9F29150C8
:100E7000E1F684E0089582E0089583E0089581E03A
:100E800008958091000587FF13C08091E80082FFDC
:100E900006C08091E8008B778093E80004C08091C1
:100EA000FE048111F2CF08958091FE048823D9F3C6
:100EB0008091E80080FFF8CF8091E8008E77ECCF3A
:100EC000982F9093E900242F762F50E0891731F066
:100ED0007091EC002091ED005091F00021FD07C0D1
:100EE0009F5F973071F78093E90081E0089530911A
:100EF000EB003E7F3093EB003091ED003D7F30936F
:100F0000ED003091EB0031603093EB007093EC001A
:100F10002093ED005093F0002091EE0027FDE0CFEC
:100F200080E00895B0E0A0E0E8E9F7E00C94C72C79
:100F3000C8EDD0E088818F7E8883E7EDF0E0808186
:100F40008160808384E082BF81E08093F3048881A4
:100F50008E7F888302EE10E0F80110821092DA0092
:100F600081EEC82ED12CF601108288818F7788837C
:100F700088818068888388818F7D888319BC1092DE
:100F8000FE041092FF041092FD041092FC0490EEF7
:100F9000E92EF12CF70180818B7F8083888181602D
:100FA000888342E060E080E08BDFF60180818E7F05
:100FB0008083F80180818160808380818860808364
:100FC000F70180818E7F8083888180618883CDB79F
:100FD000DEB7E8E00C94E32CFC01809106059091CB
:100FE000070586179707A0F06115710529F4909100
:100FF000E8009E779093E80090E06115710551F448
:10100000911108C08091E80082FF34C080E008950B
:10101000BC01F2CF8091FE048823C1F18530C1F17B
:101020008091E80083FD30C08091E80082FDEACF26
:101030008091E80080FFE1CF8091F3002091F200E1
:10104000382F6115710519F02830310558F091E0FD
:101050002830310509F090E02091E8002E772093A8
:10106000E800CBCF81918093F100615071092F5F2F
:101070003F4FE7CF8091FE04882341F0853041F057
:101080008091E80083FFBECF81E0089582E008955B
:1010900083E0089508952FB7F8946091EF0470915C
:1010A000F0048091F1049091F2042FBF0895809193
:1010B00083010895909184019130D1F49091EC04D2
:1010C00097FF16C0E82FE695E695E695EE31E0F439
:1010D000F0E0EA54FD4F282F277081E090E001C036
:1010E000880F2A95EAF78095928189238283089553
:1010F000E0EBF2E09191891303C0DF0111971C929C
:1011000092E0E63BF907B1F70895909184019130A0
:10111000C1F49091EC0497FF14C0E82FE695E69592
:10112000E695EE31F8F4F0E0EA54FD4F877021E0E7
:1011300030E001C0220F8A95EAF78281822B8283F8
:101140000895A0EBB2E0EFEF90E02D91821751F0FF
:10115000EF3F19F4211101C0E92F9F5F9630A9F7E5
:10116000EF3F09F408950E2E000CFF0BE255FD4FE2
:10117000E6CFA3E0B0E0EFEBF8E00C94CD2C2091AB
:10118000EA043091EB0428173907B1F09093EB048F
:101190008093EA04E091E804F091E904309761F06B
:1011A0000084F185E02D309739F024E029839B837A
:1011B0008A83CE01019609952396E2E00C94E92CEE
:1011C000A3E0B0E0E6EEF8E00C94CD2C2091E6042C
:1011D0003091E70428173907B1F09093E704809322
:1011E000E604E091E804F091E904309761F00084AE
:1011F000F185E02D309739F023E029839B838A83A2
:10120000CE01019609952396E2E00C94E92C809199
:10121000E404882369F0E091E804F091E904309750
:1012200039F00190F081E02D309711F00995089583
:1012300080E00895AC018091E0046091E104982F72
:10124000691301C00895292F30E0F901EE0FFF1F47
:10125000E852FB4F0190F081E02DE417F507C1F44F
:10126000F0E0E0E04930510540F467E0649FF001B0
:10127000659FF00D1124EE5BFE4F41E0448398130F
:10128000E1CF2F5F3F4F237033272093E004089571
:101290002F5F3F4F922F9370D3CF10926C04109218
:1012A0006B04E2E4F1E081E891E02581211102C0C4
:1012B0001482168237968E179F07B9F70895FC019E
:1012C000EE0FFF1FE80FF91FE753FC4F61834083C8
:1012D00022830895539A0895E0915A05EF3F89F0CB
:1012E000E53069F0E23019F0E1110DC0E3E0E150C2
:1012F000F0E0E855FD4F808180935A0527CDE1E06D
:10130000F6CFE3E0F5CFE0E0F3CFE0915A05EF3F11
:1013100061F0E53061F0E23061F4EF5FF0E0E85554
:10132000FD4F808180935A0511CDE0E0F6CFE1E0DA
:10133000F4CFE0E0F3CFE5E5F5E0248130E1231BD5
:1013400008F420E0248302CDE5E5F5E0248130E1D6
:10135000230F08F42FEF2483F9CCE5E5F5E0438172
:1013600020E1421B08F440E08181628190E0F4CCEE
:10137000E5E5F5E0438120E1420F08F44FEF81817C
:10138000628190E0E9CCE5E5F5E0628120E1621B55
:1013900008F460E08181438190E0DECCE5E5F5E092
:1013A000628120E1620F08F46FEF8181438190E058
:1013B000D3CCE5E5F5E08181438162818850990BCA
:1013C000CBCCE5E5F5E0818190E043816281089630
:1013D000C3CC80915505837031F0846080935505AE
:1013E00010924101B3CC089580915505837031F07E
:1013F00084608093550510924101A8CC0895E5E5DD
:10140000F5E0808191E089278083109241019ECC94
:101410009BE0899F802D1124980F973308F096E365
:101420002091E504222321F09C3128F09BE10895CE
:101430008B3108F48BE10895FF920F931F93CF93A4
:10144000DF93182F062FF42ED0E0C0E0CE012091BC
:10145000E504222359F0CB3160F02196C633D10543
:10146000A9F7CDB7DEB7E5E00C94E62CCB31A8F3B5
:101470004B972F2D402F612F22DFEFCF80E0089573
:10148000F894E82FE295EF70F0E031A1282F2F704B
:1014900081E090E001C0880F2A95EAF7982F909597
:1014A000932391A392A1892B82A3789408950F93FB
:1014B0001F938091E404882321F0EDDD1F910F91AB
:1014C0000895E9DD00915F031091600320916103AD
:1014D00030916203600F711F821F931FEFCF9091B5
:1014E000EC0492FF10C041E0282F2471243009F051
:1014F00040E031E0282F2871283009F030E0431710
:1015000011F02CE0822793FF10C041E0282F2471B6
:10151000243109F040E031E0282F2871283109F00A
:1015200030E0431711F02CE082273091ED0430FFBA
:1015300010C051E0282F2171213009F050E041E026
:10154000282F2871283009F040E0541711F029E0C5
:10155000822731FF10C041E0282F2171213109F08D
:1015600040E031E0282F2871283109F030E043179E
:1015700011F029E0822794FF02C083FD877E089541
:1015800082389105B9F1B0F48133910509F47DC039
:1015900048F48932910509F46DC08A32910509F445
:1015A0007BC008958533910509F45FC089339105A7
:1015B00009F10895833E9105D9F138F4803E9105F3
:1015C00029F1823E910579F10895863E9105D9F180
:1015D000873E910509F43EC0843E910541F5209176
:1015E000ED0421FF24C08091EC0484FD19C087EE36
:1015F00090E008952091EC04237009F05AC02091E6
:10160000ED0423FF14C089E290E008952091EC04DA
:1016100020FD38C03091ED0430FF09C024FF43C0E5
:1016200090E080E008952091EC0422FDF7CF08952A
:101630002091EC0422FD3AC03091ED0430FD39C018
:1016400024FFF5CFEDCF2091EC0423FFF0CF24FD54
:10165000E7CFCDCF2091EC0423FD2EC03091ED04D7
:1016600031FFEECF84EE90E008952091EC0425FF49
:10167000DECFC9CF2091EC0425FD21C02091ED04DF
:1016800023FFD5CF89E390E0D2CF2091EC0426FF51
:10169000CECF8AE290E008952091EC0426FFC7CFD8
:1016A00081E390E0089583EE90E0089582EE90E06B
:1016B000089580EE90E0089586EE90E0089585E329
:1016C00090E00895972F7830B8F46630A8F48A3007
:1016D000B0F470E026E0929F600D711D1124FB01B3
:1016E00090E3899FE00DF11D1124EE0FFF1FE25ED4
:1016F000FE4F85919491089580E090E0089581E0F7
:10170000FCCF1F93CF93DF933BDFEC01C11580E546
:10171000D807F0F5C11580E4D80708F09AC0C03E9C
:10172000D10520F5CD3CD10508F082C0C83AD105DD
:1017300078F4C53AD10508F073C0C130D10519F16C
:10174000209709F1C430D105F0F4D0E0C0E01BC00F
:10175000C33CD105D0F7C85AD0E0CC0FDD1FC45729
:10176000DE4F0990D881C02DD4640DC0C11580E230
:10177000D80708F0CDC0C11581E0D80708F05AC0DD
:10178000C83ED10510F7CE01DF91CF911F9108958A
:10179000C03682E5D80718F5C03482E5D80708F0CE
:1017A00068C0C03282E5D80708F05CC0C11582E588
:1017B000D80708F493C02C2F2695269580E2289F01
:1017C000900111248C2F8370C1E0D0E002C0CC0FB7
:1017D000DD1F8A95E2F7C22BD32BDD68D4CFC03A48
:1017E00082E5D80760F4C03882E5D80708F456C00F
:1017F000CF71D0E0DC2FCC27C46FD06AC4CFC03CFF
:1018000082E5D80708F45FC0C03E82E5D80708F03B
:101810009CCFDC2FCC27CC27DF71C06FD06AB3CF31
:10182000C55AD0E0C757DE4FC881D0E0D064ABCFF7
:10183000D065A9CF8D2F53DE182FCE019927A0DEBA
:10184000C12FD0E0DC2FCC27CC27DF71C82BD92BC0
:101850009ACFCE01992794DECC27DF70C82BD92BE5
:10186000D06A91CFCF71D0E0DC2FCC27C16FD06A86
:101870008ACF2C2F26952695277080E2289F9001ED
:1018800011248C2F8370C1E0D0E002C0CC0FDD1F8B
:101890008A95E2F7C22BD32BDC6875CF2C2F2695C7
:1018A0002695277080E2289F900111248C2F837049
:1018B000C1E0D0E002C0CC0FDD1F8A95E2F7C22B59
:1018C000D32BDA6860CF8C2F8F7109DEC82FD0E060
:1018D000DC2FCC27CC27DF71D06255CF8C2F8F71B6
:1018E000FEDD55E0D695C7955A95E1F7CF70D0E06B
:1018F000DC2FCC27282F30E084FF06C044E0220FE5
:10190000331F4A95E1F73327C22BD32BD0693BCF46
:101910008D2F8F71E4DD182FCE01992731DEC12F75
:10192000D0E0DC2FCC27CC27DF71C82BD92BD4CF2C
:101930008095909127039823909327030895809191
:10194000270390916D04892B9091FE02992391F0C9
:10195000892B90918401913071F49091EC0497FF60
:101960000AC09EE128EB32E040E0915040F4411182
:101970001092FE02089596E020EB32E0F5CFF901D7
:1019800051919F01552389F34F5FEFCF809151050E
:1019900090910805981301C008958F5F8770FACF62
:1019A000B0E0A0E0E6EDFCE00C94C62C7C010091D8
:1019B00088031091890380916D0390916E03082B29
:1019C000192BCFE0D0E0CC24C394D12CBC2EC6017F
:1019D0000C2E02C0880F991F0A94E2F780239123EE
:1019E000892B49F4219790F7B12C8B2DCDB7DEB719
:1019F000E9E00C94E22CB7018C2F64DE82DE0197C3
:101A000089F3F3CFCF93DF93EC01CADFBE015ADE37
:101A100078DEDF91CF910895983078F5863068F5BB
:101A2000E82FF0E086E0989FE00DF11D11249E2F35
:101A3000977083E0F695E7958A95E1F7EE0FFF1F23
:101A4000EE0FFF1FE452FD4F50E040E080E0219197
:101A500030E0092E02C0369527950A94E2F72170EE
:101A60003327042E01C0220F0A94EAF7822B4F5F1E
:101A70005F4F4430510559F7089580E0089598303C
:101A800098F5863088F5E82FF0E086E0989FE00D25
:101A9000F11D11248E2F877041E001C0440F8A95FB
:101AA000EAF783E0F695E7958A95E1F7EE0FFF1FD9
:101AB000EE0FFF1FE452FD4F30E020E070E0519147
:101AC000DF011197CB01022E02C0969587950A94EB
:101AD000E2F7817081958527842385278C932F5F7A
:101AE0003F4F2430310559F708959093890380932F
:101AF0008803089521E030E002C0220F331F8A9549
:101B0000E2F7209530958091880390918903822394
:101B10009323EBCF9091FD02809589238093FD0262
:101B2000282F277061F4891751F09091ED0492FFEE
:101B300006C0869586958695DDDF1092FD02089594
:101B400021E030E002C0220F331F8A95E2F7809136
:101B5000880390918903822B932BC7CF90936E03B8
:101B600080936D030895FC0184818823E9F08781C7
:101B70009085009789F0C5DD92959F709630B1F001
:101B800078F4925F9F70923078F4803F19F050F4AF
:101B9000883E50F481E008958081918133DFECCF5D
:101BA0009A5FF0CF843FB1F380E00895883E90F3D0
:101BB000813FD1F7EFCF292F332740E021153105A1
:101BC00011F0C90148E09C0164E0369527956A95BB
:101BD000E1F72115310511F04C5FC9019C013695E3
:101BE0002795369527952115310511F04E5FC901CE
:101BF00096958795892B09F04F5F842F0895A6E06D
:101C0000B0E0E5E0FEE00C94CC2C9C01FC01878167
:101C100090850097C9F486E0DE01119601900D923F
:101C20008A95E1F7F901258189819A81222381F042
:101C3000662371F0B5DE182F682F89819A811FDF26
:101C400069817A81812F3EDD2696E3E00C94E82CB1
:101C5000E3DE182FF5CFCF93DF93682F81E06A3052
:101C600019F06D3029F480E082D0DF91CF91089592
:101C7000809167079091680726E0FC01A1E6B7E034
:101C800001900D922A95E1F7603E08F458C026E0D5
:101C9000FC0111922A95E9F7C0916707D091680776
:101CA00046E050E0BE0181E697E00E94312D9E01A2
:101CB00021563540892B41F1C90145E0969587951C
:101CC0004A95E1F741E050E0BA0102C0660F771F84
:101CD0008A95E2F7CB0160915F0570916005862BD4
:101CE000972BB9016B5F7F4FE5E076956795EA9595
:101CF000E1F702C0440F551F6A95E2F7842B952B3C
:101D00009093600580935F052A5F3F4F40915E0589
:101D1000642F70E0C9010E94A92C481B463010F4C2
:101D2000240F311D211572E0370710F030E020E05C
:101D30002F593A4F309368072093670796CFF6E004
:101D40006F9FB00111246756784F46E050E00E9423
:101D5000282DA2CFCF93DF93EC01FE018491811156
:101D600003C0DF91CF91089576DF2196F6CFCF9310
:101D7000382FE0916707F0916807E156F540209110
:101D80005E05622F70E0CF010E94A92C281B822FD4
:101D9000332359F066E00E94F42CC82FC15010F490
:101DA000CF91089580E257DFF9CF9F01280F311DB1
:101DB0002115324018F080E0F0E0E0E08E0F9F2F18
:101DC000911D8F599A4F9093680780936707E8CFCA
:101DD000C1DF81E0CCCF80918401813061F58091B9
:101DE000EC0487FF28C0ABDD8093B70240E250E0EF
:101DF0006FEF72E086EB92E00E94312D892BD1F0DB
:101E000080E2E6EBF2E0AFEFB2E001900D928A954E
:101E1000E1F7E091E804F091E904309759F004808B
:101E2000F581E02D309731F086E08093B60286EBA5
:101E300092E00995089583DD8093AE0248E050E07A
:101E40006FE173E08EEA92E00E94312D892B91F3CD
:101E500088E0EEEAF2E0AFE1B3E001900D928A95FE
:101E6000E1F7E091E804F091E904309719F302807A
:101E7000F381E02D3097F1F28EEA92E0DACF109202
:101E80002703809184018130A1F48091EC0487FFC5
:101E900010C0E8EBF2E08EE1DF011D928A95E9F7D0
:101EA00090E080E08DD990E080E063D910926D04DD
:101EB00092CFE0EBF2E086E0EFCFAAE2B0E0E3E61B
:101EC000FFE00C94CC2C80E095E02091F100FC0127
:101ED0002193CF01F5E088309F07B9F78091010584
:101EE000833009F46FC0B8F4813009F447C0823000
:101EF00009F4B3C08091E80083FF87C28091000598
:101F0000909101059A3008F080C2E92FF0E0ED567B
:101F1000F24D0C94222D8A3009F48EC08B3009F4D6
:101F20006EC0893039F780910005813219F78091B0
:101F30000405909105050297E8F68091E800877FF7
:101F40008093E8008091E80082FF37C09091F30011
:101F50008091F200029731F48091F100813011F00C
:101F6000863021F48091F100809383018091E80014
:101F70008B778093E8000E944107BCCF80910005D9
:101F8000813A09F0B7CF8091E800877F8093E8001D
:101F90008091040590910505892B59F468E084EF40
:101FA00094E070E019D88091E8008B778093E80086
:101FB000A1CF60E090E080E0F4CF8091FE04811139
:101FC000C1CF98CF80910005813A09F093CF8091DD
:101FD000040590910505892B09F08CCF8091E800CC
:101FE000877F8093E8008091E80080FFFCCF80919C
:101FF00084018093F1008091E8008E77BACF8091C0
:102000000005813209F076CF809104059091050595
:10201000892B09F06FCF8091E800877F8093E800DB
:102020000E94410781E090910205911101C080E07A
:102030008093840124DF5ECF80910005813209F016
:1020400059CF8091E800877F8093E8000E94410784
:1020500080910305809382014DCF80910005813AE4
:1020600009F048CF8091E800877F8093E800809155
:10207000E80080FFFCCF80918201BBCF803899F0CF
:10208000823809F0C2C1809104058F70873008F052
:10209000BCC18093E9008091EB0085FB882780F923
:1020A0001092E90006C08091FC049091FD0491110A
:1020B00082609091E800977F9093E8008093F10010
:1020C0001092F1008091E8008E779BC1882309F47B
:1020D00089C1823009F099C18091020581118CC1BA
:1020E000809104058F702FEF280F263008F08DC1E6
:1020F0008093E9002091EB0020FF7EC1933031F402
:102100008091EB0080628093EB0076C19091EB00B0
:1021100090619093EB0021E030E001C0220F8A959E
:10212000EAF72093EA001092EA008091EB008860C1
:10213000EACF81116AC1109102051F778091E300F7
:102140008078812B8093E3008091E800877F8093E3
:10215000E8000E9441078091E80080FFFCCF809159
:10216000E30080688093E30082E0111183E08093B4
:10217000FE044BC18058823008F047C180910205AF
:10218000909103058C3D23E09207A1F583E08A83BB
:102190008AE289834FB7F894DE01139620E03EE08F
:1021A00051E2E32FF0E050935700E49120FF03C089
:1021B000E295EF703F5FEF708E2F90E0EA30C0F055
:1021C000C7968D939D932F5F243159F74FBF809110
:1021D000E800877F8093E8006AE270E0CE01019614
:1021E0000E94EC078091E8008B778093E8000DC196
:1021F000C096E7CF4091040550910505292F33275C
:102200002330310509F444C078F52130310509F453
:102210006FC08BE390E0E8E2F7E02230310509F08F
:10222000F4C02091E800277F2093E8002091060564
:10223000309107058217930708F49C0140E02115AF
:10224000310509F064C0411162C08091E80082FD4F
:10225000C9CF8091FE04882329F2853019F280913C
:10226000E80083FFF2CFBECF21323105A9F122323F
:10227000310509F0CAC04115510509F443C0413088
:10228000510509F0C2C08FE690E0E5E7F6E0C9CF5E
:10229000992781309105C1F0009759F0029709F014
:1022A000B4C0E5E7F7E0E4918E2F90E0E5E7F7E0D2
:1022B00007C0E5E9F7E0E4918E2F90E0E5E9F7E06B
:1022C000009709F4A2C0ADCFE3E8F7E0E4918E2FC8
:1022D00090E0E3E8F7E0F4CF4115510571F04130AB
:1022E000510509F092C089E090E0E3E5F7E099CF6D
:1022F00082E190E0E3E6F7E094CF89E090E0EAE362
:10230000F7E08FCF84E490E0E4EEF6E08ACF8091AE
:10231000FE04882309F466CF853009F463CF8091E9
:10232000E80083FD5FCF8091E80082FD8ECF809131
:10233000E80080FF84CF9091F3008091F200211596
:10234000310519F08830910550F041E0089709F007
:1023500040E08091E8008E778093E80070CF449150
:102360004093F1003196215031090196E8CF803831
:1023700009F04BC08091E800877F8093E80080914E
:10238000FF048093F1009ECE81113FC010910205A1
:102390001230D8F58091E800877F8093E800109391
:1023A000FF040E944107112311F084E005C08091D1
:1023B000E30087FDFACF81E08093FE0442E061EC08
:1023C00081E00E94600742E261EC82E00E946007C7
:1023D0008091FE04843021F081E08093850115C056
:1023E00082E0FBCF80910205813079F481E0933067
:1023F00009F080E08093FD041092E9008091E800EC
:10240000877F8093E8000E9441078091E80083FF66
:102410000AC08091E800877F8093E8008091EB00FC
:1024200080628093EB00AA96E3E00C94E82C27DD11
:1024300088E19CE00FB6F894A895809360000FBEE9
:1024400090936000FFCF882311F072DAC4CC089516
:10245000882331F090912703982B90932703BBCCCE
:102460000895882319F19CEF980F913A18F40E946F
:102470005A08B1CC90E2980F983048F4877091E0F8
:1024800001C0990F8A95EAF7892F52DAF2CF9BE5BE
:10249000980F933020F490E080E00C94E008885A84
:1024A0008B3120F490E080E00C94B9080895CF932C
:1024B000C82F8823A9F18CEF8C0F813A98F5809171
:1024C00084018130F9F48091EC0487FF1BC0EC2F6C
:1024D000E695E695E695F0E0EA54FD4F828190E0BE
:1024E0004C2F477021E030E002C0220F331F4A9585
:1024F000E2F782239323892B79F08C2F0E945A08CC
:102500006ADC0AC0E0EBF2E086EB92E02191C217B0
:10251000A1F38E179F07D1F78C2F0E9485085BDCF3
:10252000CF91089580E28C0F883068F4C77021E065
:1025300030E001C0220FCA95EAF780912703822B71
:1025400080932703ECCFEBE5EC0FE33040F4F0E0B1
:10255000E757FE4F808190E00E94E008E1CFC85A23
:10256000CB31F0F6EC2FF0E0EE0FFF1FE457FE4FFB
:10257000808191810E94B908D3CF0F931F93CF938D
:10258000DF93EC01862FBA01F80155812617370732
:10259000A1F49881552331F0911101C088DF82E0C8
:1025A000888304C0923039F09330B9F0DF91CF9135
:1025B0001F910F91089581E0F3CF552389F02132C7
:1025C000F2E53F0739F0243292E5390719F0283057
:1025D000324561F79881992349F3188242DFE6CFAB
:1025E0002132F2E53F0711F380F4203E310530F04F
:1025F000243E3105D8F228303245C1F2988191301D
:1026000061F383E0923061F2D1CF2432F2E53F07EB
:1026100069F2A0F320543E472430310578F7C6CF45
:102620000F931F93CF93DF938B01EA019091FE04E8
:10263000943061F58093E9008FEF9091E80081502C
:1026400095FD06C095ED9A95F1F700008111F5CF43
:102650008091E80085FF1AC00E941007811111C007
:102660008091E80085FD06C08091E8008E77809318
:10267000E800F2CFF80181918F018093F10021975A
:1026800079F78091E8008E778093E800DF91CF9111
:102690001F910F91089543E050E0BC0182E0C0CF4C
:1026A00040E250E0BC0182E0BBCFCF93DF93EC016E
:1026B00048E050E0BC0181E0B3DF88E0FE01A4EF18
:1026C000B4E001900D928A95E1F7DF91CF910895E2
:1026D00081E08093E00080E28093D8001092C900EE
:1026E0008FE19EE40197F1F700C0000087E090EBD6
:1026F000DC018093690790936A07A0936B07B093FE
:102700006C0788E19CE00FB6F894A8958093600070
:102710000FBE90936000FFCF3BB1377F2BB1286095
:102720004FB7F89489EC93E0FC015191CF0168E038
:102730002BB9000000C057FF3BB9550F000000C087
:1027400000C000C03BB900C06A9591F7F4E08B3639
:102750009F0751F74FBF8FE594E00197F1F700C055
:1027600000000895B0E0A0E0E8EBF3E10C94C52C84
:102770007C015B016A0180915E0301E010E08A3018
:1027800010F40AE010E0C1E0D0E0B501C701F601A5
:102790000995811104C021960C171D072CF4CDB7A3
:1027A000DEB7EAE00C94E12CCC9F9001CD9F300D78
:1027B000300D112490E080E045E34A95F1F70000E8
:1027C000019682179307C1F7E0CFAB0124E630E012
:1027D000BC0188E70E947B2A21E0892B09F020E0D8
:1027E000822F08958091C7039091C803911103C06F
:1027F00091E089270895882361F062E070E083E723
:1028000096E0E3DF811103C08091C7030895109221
:10281000C7038091C703ECCFCF93C091C7038091CA
:10282000C8038823C9F00E944B08605A75418F4F36
:102830009F4F6093C3037093C4038093C503909329
:10284000C603C11107C062E070E081E796E0BDDF1A
:10285000811105C0C091C7038C2FCF91089581E0ED
:102860008093C703F7CFB0E0A0E0E9E3F4E10C9474
:10287000C52C0E94570A6093BA037093BB038093E0
:10288000BC039093BD031091C203209141012130FC
:1028900029F1222359F0223009F459C1233009F4D7
:1028A0005FC1CDB7DEB7EAE00C94E12C10923E0197
:1028B0006093BE037093BF038093C0039093C103E2
:1028C00090915505892F837019F0892F86958695EB
:1028D0008093C20381E080934101E3CF80913D0169
:1028E000181324C090915505937020913C0130E05D
:1028F00081E09217130609F480E081708093400113
:1029000080915A0590913F01981739F080933F01CB
:1029100040E060E080E00E941C0A113099F0112331
:1029200039F01F3F09F4D8C080E02CC081E0E5CF2A
:1029300080914001882331F140E060E080E00E9416
:102940001C0AF2CF80913E010E94080AA82E092F8E
:10295000D090560540915705E0915805F0E0EF58AA
:10296000FA4F411121C0C491DC2FFC2EB12C809173
:10297000E504A01608F48CC0882309F4A8C081E0FF
:102980000B3190F690913E019F5F90933E01811133
:10299000DAC082E080934101809140018111D3C06F
:1029A0001111C4C083E097CFE42EF12CC491BC2E4A
:1029B000EC2FF0E026E0D29EC00111242FEF30E092
:1029C000B9010E94A92C8D2D90E0880F991F55E523
:1029D000569FD001579FB00D11248A1B9B0BD82EF8
:1029E000DD0CD80ED901AE19BF09AE9FC001AF9F53
:1029F000900DBE9F900D1124D92F4D9DA001112443
:102A0000452F5527D901A41BB50BAE9FA001AF9F41
:102A1000500DBE9F500D1124D901AD19B1096D01A2
:102A2000CE9CD001CF9CB00DDE9CB00D1124AB2FFD
:102A3000BB272A1B3B0B2E9FD0012F9FB00D3E9F23
:102A4000B00D1124FB2E62307105A1F050F4611518
:102A5000710509F48BCF6130710581F0F92ED52F06
:102A600085CF6430710569F080F06630710509F436
:102A70007DCFF4CFC92FDB2FFB2C78CFFC2EC52FB9
:102A800075CFCB2FF92EDB2D71CFF52EC92FFBCFB4
:102A9000F501D501AE58BD4F9C9120913F01922385
:102AA00031F0882341F0BBE1AB16B1044CF08FEF5D
:102AB000A81AB80A5CCF7B972BE1A216B104BCF32D
:102AC0002D2F4F2D6C2FCF010E945F09F0CF81E099
:102AD000063308F457CF28CF8091BE039091BF03EF
:102AE000A091C003B091C1032AE0B695A795979530
:102AF00087952A95D1F783709927AA27BB2782301B
:102B00009105A105B105C1F083309105A105B1057D
:102B1000B1F040E060E00197A105B10591F464E1F6
:102B200080E00E941C0A82E08093410180913E0176
:102B300081500E94080AB5CE44E160E0F1CF44E143
:102B400064E184E1EECF112309F4ABCEEFCF109313
:102B50003D0180915505837080933C01DDDD22CFDE
:102B600080915D05882351F048E050E067E170E016
:102B700085E595E00E94642D10925D05C090BE032E
:102B8000D090BF03E090C003F090C1038091E404B3
:102B9000882379F00E944B086C197D098E099F09E2
:102BA000603171058105910508F47BCE10924101D9
:102BB00078CE0E94570AF0CFE5E5F5E085E0808306
:102BC0008091860190918701A091880181839283F1
:102BD000A3838FE784838FEF858348E050E067E12C
:102BE00070E0CF010E94642D10925D0508959091D0
:102BF000ED0492FB222720F9281779F080FB92F947
:102C00009093ED046091EC047091ED0484E090E009
:102C10000E948D2D82E00C948A0D0895CF92DF9250
:102C2000EF92FF921F93CF93DF9300D000D0CDB7E8
:102C3000DEB7C0905603D0905703E0905803F09051
:102C400059030E944B086C197D098E099F0911E0F8
:102C5000643671058105910570F10E94570A6E5F17
:102C60007F4F8F4F9F4F69837A838B839C838091A3
:102C7000190190911A01805C9C4F4091180150E01D
:102C80004530510510F044E050E0BE016F5F7F4FCA
:102C90000E943E2D83E090E00E94392C182F88235B
:102CA00051F00E944B086093560370935703809332
:102CB000580390935903812F0F900F900F900F900E
:102CC000DF91CF911F91FF90EF90DF90CF9008950B
:102CD0008F929F92AF92BF92EF92FF921F93CF93EA
:102CE000DF9300D000D00F92CDB7DEB77B0190E02C
:102CF00080E00E94392C182F882309F482C040916B
:102D0000030150E04115510511F041E050E06091A0
:102D1000040170910501605C7C4FCE0105960E9414
:102D20003E2D8090380390903903A0903A03B090E4
:102D30003B030E944B08681979098A099B0964368C
:102D400071058105910540F481E493E00E94DA0663
:102D50009D81891709F455C081E090E00E94392CCB
:102D600081111EC010E08091340390913503A09131
:102D70003603B0913703F70180839183A283B38335
:102D8000812F0F900F900F900F900F90DF91CF91A8
:102D90001F91FF90EF90BF90AF909F908F900895FC
:102DA00040910B0150E04530510510F044E050E0F7
:102DB00060910C0170910D01605C7C4FCE01019619
:102DC0000E943E2D81E493E00E94DA069D818913E2
:102DD000C9CF0E944B0860933803709339038093E6
:102DE0003A0390933B0389819A81AB81BC818093A4
:102DF000340390933503A0933603B093370311E067
:102E0000B2CF8091410390914203A0914303B091CE
:102E1000440389839A83AB83BC831111E4CFA3CF8E
:102E2000B0E0A0E0E6E1F7E10C94C32CC82F7B01F1
:102E3000D42F6901FB0180809180A280B3800E9421
:102E40004B08681979098A099B096436710581055F
:102E5000910510F4DD2359F10C2E000CDD0BFE0161
:102E600083E0EE0FFF1F8A95E1F7E050FF4F81816D
:102E70009281805C9C4F408150E00417150708F454
:102E8000A801B6010E943E2DCE010E94392CC82F08
:102E9000882339F00E944B08F70160837183828395
:102EA00093838C2FCDB7DEB7ECE00C94DF2CC1E020
:102EB000F8CFA9E0B0E0EFE5F7E10C94CB2C88E087
:102EC000E5E5F5E0DE01119601900D928A95E1F7B6
:102ED000198649E050E06DE473E0CE0101960E944E
:102EE000312D41E0892B09F440E009E010E09E011A
:102EF0002F5F3F4F6AE573E084E092DF2996E4E0BC
:102F00000C94E72C0F931F93CF93DF93EC0144E0D5
:102F100050E065E473E00E94312D41E0892B09F413
:102F200040E004E010E09E016CE373E082E078DFB3
:102F3000DF91CF911F910F9108951F920F920FB6BD
:102F40000F9211242F933F934F935F936F937F932F
:102F50008F939F93AF93BF93CF93DF93EF93FF93A1
:102F6000D091E900DF708091EC00C82FC17080FD26
:102F7000C0E81092E9008091F000877F8093F00014
:102F800078940E945D0F1092E9008091F0008860B3
:102F90008093F000CD2BCF70C093E900FF91EF91AB
:102FA000DF91CF91BF91AF919F918F917F916F9161
:102FB0005F914F913F912F910F900FBE0F901F90F7
:102FC00018951F920F920FB60F9211242F933F93D3
:102FD0004F935F936F937F938F939F93AF93BF9321
:102FE000EF93FF938091E10082FF09C08091E2009E
:102FF00082FF05C08091E1008B7F8093E10080918A
:10300000DA0080FF24C08091D80080FF20C080912A
:10301000DA008E7F8093DA008091D90080FFAAC009
:1030200080E189BD82E189BD09B400FEFDCF81E068
:103030008093FE048091F304811109C00E94F1067F
:103040000E9492078091E20084608093E200809168
:10305000E10080FF1AC08091E20080FF16C08091DD
:10306000E2008E7F8093E2008091E2008061809395
:10307000E2008091D80080628093D80019BC85E07E
:103080008093FE0483E0809385018091E10084FFBA
:1030900030C08091E20084FF2CC080E189BD82E1D4
:1030A00089BD99B5892F817090FFFBCF9091D80091
:1030B0009F7D9093D8009091E1009F7E9093E100D6
:1030C0009091E2009F7E9093E2009091E2009160E7
:1030D0009093E2009091FF04992309F451C094E089
:1030E0009093FE049091FE04943009F482E0809362
:1030F00085018091E10083FF2CC08091E20083FF75
:1031000028C08091E100877F8093E10082E0809376
:10311000FE041092FF048091E1008E7F8093E10015
:103120008091E2008E7F8093E2008091E2008061D6
:103130008093E20042E060E080E00E9460078091BE
:10314000F00088608093F00081E080938501809397
:103150008401FF91EF91BF91AF919F918F917F91EA
:103160006F915F914F913F912F910F900FBE0F90F4
:103170001F90189519BC1092FE041092F30467CFAB
:103180009091E30097FD02C0982FAACF93E0A8CFBB
:1031900078941F921FB61F9211248F939F93AF9321
:1031A000BF938091EF049091F004A091F104B0914D
:1031B000F2040196A11DB11D8093EF049093F004D9
:1031C000A093F104B093F204BF91AF919F918F91BE
:1031D0001F901FBE1F9018952FB7F8948091EF0491
:1031E0009091F004A091F104B091F2042FBF0895E2
:1031F000CF93DF93EC01F0DF8C1B9D0BDF91CF9120
:103200000895EF92FF920F931F93CF93DF93C62FF2
:10321000D42F022FFC018581882399F060935405F7
:10322000DBDF9093530580935205C77081E001C0A6
:10323000880FCA95EAF70CD9CDB7DEB7E6E00C9453
:10324000E52C80915405681331C0E0905205F09050
:103250005305C2DF8E199F09883C910538F510E2AD
:103260001D0FCD17A9F080E28C0F883038F4C7709D
:1032700081E001C0880FCA95EAF7E5D8183040F41C
:1032800081E09D2F977001C0880F9A95EAF7E0D8EA
:10329000802F0DD9802FE5D8183070F6D77081E0D7
:1032A00001C0880FDA95EAF7CED8C6CFC77081E0A3
:1032B00001C0880FCA95EAF7F7CFB0E0A0E0E3E6D7
:1032C000F9E10C94C62C7C01FC018481882309F46B
:1032D00082C061E0C7010E94FF0DEC01F70185810A
:1032E000882361F18181809394038081809393038B
:1032F00080E280933401D0939203C0939103CE0176
:1033000090528115904230F4F7018681807FB1F0B0
:10331000FE010BC0CE0190548115904108F03AC0D7
:10332000F7018681807FFE0109F0FF27ED33F1056B
:1033300028F4EE51FF4FE491E093340187019E01A0
:1033400040E45EE761EE70E089ED92E016D99E01FF
:1033500041E45EE760EE70E088ED92E00ED99E01F8
:1033600042E45EE762EE70E087ED92E006D99E01EE
:1033700043E45EE763EE70E086ED92E0FED8FE0186
:10338000E851FC47E730F10508F041C0E356F24D43
:103390000C94222DCE019A9581159F4108F4B8CF47
:1033A000CE01805A9245809748F2FE01BFCF26E2B7
:1033B00041EE61EEC70125DF8091FD02877059F073
:1033C000F7018581882339F08091ED0482FF03C0E5
:1033D00082E00E948A0DCDB7DEB7E9E00C94E22CC2
:1033E00027E245EE65EEE6CF26E241EE60EEE2CF63
:1033F00027E245EE64EEDECF26E241EE62EEDACF62
:1034000027E245EE66EED6CF28E241E0EBCFF701AA
:103410009581992309F4DDC3109254059E0130571C
:103420002332310508F0C1C384E090E00E945F2D93
:103430009093ED048093EC04FE01E150F047E232FA
:10344000F10520F4EC55F24D0C94222D8091EC0402
:1034500081608093EC0495C08091ED048860809336
:10346000ED048FC08091EC048260F3CF8091EC0476
:103470008460EFCF8091EC048860EBCF8091ED0405
:103480008160EDCF8091ED048260E9CF8091EC0402
:103490008061DFCF8091EC048062DBCF8091EC040F
:1034A0008064D7CF0E943F0F8091EC048068D1CF19
:1034B0008091EC048C60CDCF8091ED048360CFCF00
:1034C0008091EC048E7FC5CF8091ED04877FC7CFBC
:1034D0008091EC048D7FBDCF8091EC048B7FB9CFC0
:1034E0008091EC04877FB5CF8091ED048E7FB7CFBC
:1034F0008091ED048D7FB3CF8091EC048F7EA9CFB6
:103500008091EC048F7DA5CF8091EC048F7BA1CFBF
:103510000E943F0F8091EC048F779BCF8091EC0449
:10352000837F97CF8091ED048C7F99CF8091EC04BD
:1035300082FB992790F921E0922790FB82F990FB7A
:1035400083F987CF8091ED04982F909591708E7FAD
:10355000892B90FB81F983CF9091EC04892F8F7B8D
:1035600096FF806476CF0E943F0F9091EC04892FE4
:1035700097FB87F980586DCF61E08EE090E00E9464
:10358000732D6091EC047091ED0484E090E00E9452
:103590008D2D0E943F0F10CF60E0EFCF9091EC0493
:1035A000892F8F7E94FF806154CF9091EC04892FF6
:1035B0008E7F90FF81604DCF9091ED04892F877FA2
:1035C00093FF88604CCF85E3FFC285E30BC30E9465
:1035D000FF09F2CE882391F10E94E909EDCE8823FC
:1035E00091F10E94D909E8CE882391F10E94C30984
:1035F000E3CE882391F10E94AD09DECE882391F1BC
:103600000E949B09D9CE80915505837011F41092C8
:103610004101809155058C7F8160809355050E9402
:10362000A606CACE80915505837011F01092410113
:10363000809155058C7FF1CF882371F20E94F409A7
:10364000BBCE882371F20E94E109B6CE882371F2C5
:103650000E94CE09B1CE882371F20E94B809ACCE87
:10366000882371F20E94A409A7CE882329F00E9422
:103670006C09A2CE8823D9F30E9485099DCE9E01B4
:10368000205E324520323105A8F4911115C0CF716A
:1036900081E090E09C0102C0220F331FCA95E2F73F
:1036A000E901622F83E090E00E94732DCE010E9419
:1036B000AE0D82CE992381F1CB353CE7D30799F04B
:1036C000CC358CE7D80731F0CA35ECE7DE0769F472
:1036D00081E007C08091ED0482FB882780F991E0AA
:1036E000892785DA69CE80E0FCCFC1303CE7D3077B
:1036F00089F0C3308CE7D80739F0C115DC4761F495
:103700000E943F0F0E9468136FEF7FEF90E080E010
:103710000E948D2D0E941712F701278130852115F7
:10372000310509F43DC0C9010E94810BD82FC92F72
:10373000F701B580068102950F708091FD028770B8
:1037400001F1DB2CBB20F1F0892F807F803461F008
:1037500080E28D0F8830A8F0892F807E803221F49E
:10376000D23078F0002369F08091ED0482FF09C027
:1037700082E00E948A0D8091FD028770DD24D3943F
:103780008111D12CCC2EC2948FE0C822FBE0FC1515
:1037900008F477C0EC2DF0E0EA53F24D0C94222DA2
:1037A000C081D181992369F0CE010E94D00C182FDD
:1037B000682FCE010E943F0DBE01812F0E94620B37
:1037C000B3CFCE010E940C0D182FF6CF1C2F1F7007
:1037D000C07F11F01295107FBB20B9F0112369F062
:1037E00080E28D0F883010F0D11109C0809127033D
:1037F000182B109327030E94EB0E8D2F40C0809151
:103800006D04182B10936D04F6CF8D2F0E9431128A
:103810001123B9F180E28D0F883010F0D11104C06E
:10382000812F0E94980C06C0109580916D0418237A
:1038300010936D040E94EB0E24C01C2F1F70C07FDC
:10384000C03211F01295107FDD2349F0D13009F418
:1038500058C0BB2009F462C0002351F1CECF809143
:10386000ED0482FD21C0BB20C9F0112339F0809105
:103870002703182B109327030E94EB0E80E00E9471
:103880005712EC2DE850FF0B349708F076C10E94D8
:10389000070960E0C7010E94FF0D9DCD80E00E94F6
:1038A0003112112371F3BCCFBB2091F0011104C080
:1038B000812F0E942812E5CF013019F78091FE0276
:1038C000912F98231917E9F2182B1093FE02D9CFE4
:1038D0000111D7CF812F0E9423129091FE02812FD8
:1038E000892329F0812F809589238093FE0280917E
:1038F000DB02912F982329F2109518231093DB02F5
:10390000C0CFBB2021F0063008F0BBCFD1CF0530AF
:1039100008F0B7CF812F0E942312B3CF0023D1F339
:10392000D93349F42FEF37EE83E021503040804007
:10393000E1F700C000008D2F0E943112A2CF8C2F22
:1039400086958695837069F0813009F09ACF8D2F26
:103950009C2F9370B11002C080E090E00E94B908E3
:1039600090CF8D2F9C2F9370B11002C080E090E01B
:103970000E94E00886CF8C2F837009F03FC0B11001
:1039800080CF4D2F429546954770440F440F2D2F01
:103990002F7030E0042E02C0220F331F0A94E2F78A
:1039A00090E080E0D4FF09C08FE090E002C0880F73
:1039B000991F4A95E2F780959095C695C695C37074
:1039C000C23099F078F440916D0350916E03C1308C
:1039D00039F0822B932B842395230E94AE0D51CF77
:1039E000242B352B822B932BF8CF822B932B2091DA
:1039F0006D0330916E0382279327EFCF8695BB200E
:103A000011F08C2F8170882309F43BCF4D2F429504
:103A100046954770440F440F2D2F2F7030E0042E31
:103A200002C0220F331F0A94E2F790E080E0D4FF37
:103A300009C08FE090E002C0880F991F4A95E2F715
:103A400080959095C695C695C370C23099F078F46C
:103A50004091880350918903C13039F0822B932B18
:103A6000842395230E94750D0CCF242B352B822B9C
:103A7000932BF8CF822B932B2091880330918903CD
:103A800082279327EFCFCF70BB2029F08C2F0E9485
:103A9000A00D8D2F0ECF8D2F0E9423128C2F0E94F0
:103AA0007A0DEFCED23F61F160F4D03FB9F0D13F53
:103AB00081F0BB2009F451C001119FCE8C2F8F7172
:103AC00023C0D33F21F1D43FA1F79091ED0492FDA3
:103AD0002CC08C2F8F71BB2011F316C0BB2061F05E
:103AE000053008F0CECECF7181E090E002C0880FA3
:103AF000991FCA95E2F7C0CF063008F0C2CEF3CFC7
:103B00008C2F8F71B110CBCF0E94A00DBACE90E058
:103B100080E0BB2009F4A6CFCF7181E090E002C025
:103B2000880F991FCA95E2F79DCFBB2061F08C2FBB
:103B30008F7192FFE9CF98E0899F90011124236053
:103B40002093FD02E1CF81E00E948A0D023008F44B
:103B500098CE82E00E948A0D94CE002359F0D9338A
:103B600009F0E9CEEFEFF7EE23E0E150F04020401E
:103B7000E1F7DFCE8C2F8F7192CFDD2009F489CE53
:103B80008091FD0280FD85CEF70115828695869590
:103B900086950E94A00DC70190DB8091FD0286955D
:103BA000869586950E947A0D74CE80912703C63142
:103BB000FCE7DF07D1F48A7A91E009F490E0909372
:103BC000DA02811100CD89E20E9485080E94EB0E85
:103BD000F3CBC6312CE7D207A1F48091DA02811130
:103BE000F4CC89E20E945A08F1CF8272FE01E052C1
:103BF000F847EB30F10508F042CDEE52F24D0C944F
:103C0000222D809127038272FE01E054F847EF30A5
:103C1000F10508F034CDE352F24D0C94222DCF93F0
:103C2000DF938091FA02807F09F04CC08091F90205
:103C3000882309F447C0E091510550910805C091CF
:103C4000F502D091F4026091F6027091F70249E01A
:103C50005E17C1F18E2F90E0E49FF0011124E75F21
:103C6000FA4F2481222389F1489FF001499FF00DEA
:103C70001124DF01A75FBA4F11962C9111972C13D5
:103C800024C02C912D1321C015962C91159721112C
:103C90001CC012962D913C91261B370B283C3105F8
:103CA000A0F48091FA028F7080618093FA02E15F44
:103CB000FA4F80818F708061808384EF92E0FDDA1B
:103CC0000E94C60CDF91CF910895FC013196E770F8
:103CD000BFCFA8E1B0E0EFE6FEE10C94C32C8C016D
:103CE00086E0F801DE01539601900D928A95E1F786
:103CF000F8018481E58094EFA92E92E0B92E90918D
:103D0000F802911126C0882309F1EE20E9F0C801DC
:103D10000E94B30DF82E8823B9F089E0F801D5018F
:103D200001900D928A95E1F78091F802813031F48B
:103D30008091F4029091F5020E94020D70DF8F2DA8
:103D40006896ECE00C94DF2CC801B7DAFF24F394FA
:103D5000F6CFD080C18082809380F090F9022091CC
:103D6000F6023091F702A401421B530BFF2009F425
:103D700006C1483C510508F0B1C0882301F3909179
:103D8000F5028091FA02282F207F09F05DC0C91248
:103D90001CC09091F402D91218C04091FB025091BE
:103DA000FC02278130854217530779F4E11046C0A1
:103DB0008F7080618093FA0284EF92E07EDA8091C6
:103DC000FA02F8018683F12CBACFE11037C06C2DCE
:103DD0008D2D0E94BB066C2D8D2D0E94BB06E82EFA
:103DE0008111F1CFDB8ACC8A8B899C890E94020DDC
:103DF000292F22952F70243058F49F70223080F0A4
:103E0000992391F0F8019681907F71F4FE2C97CF61
:103E10002A5F2F70223060F0C8014FDAEF2CF6CF06
:103E2000992311F0882391F3805E883078F3F4CFE2
:103E3000803F60F3815F833078F7E8CF8091FA02AA
:103E400081608093FA02BFCFC9121BC09091F40227
:103E5000D91217C04091FB025091FC022781308596
:103E60004217530771F4E1100CC08683C80125DAAC
:103E700089E0F801A4EFB2E001900D928A95E1F794
:103E80005ECFC8010E94B30D882309F45DCFEE20F8
:103E900009F45ACF8091FA028032B0F02091F402F6
:103EA0003091F5023B872A879D868C869091F80297
:103EB0009E871F86888B8091FB029091FC029A8BD3
:103EC000898BCE010A96F9D989E0F801A4EFB2E016
:103ED00001900D928A95E1F7A2DE38CF9091FA0217
:103EE000292F207F49F484EF92E0E7D989E0F5019A
:103EF00011928A95E9F767CF882309F420CF809142
:103F0000F5028C1118C08091F402D81214C04091AF
:103F1000FB025091FC02278130854217530759F468
:103F2000E11009C09683C801C8D989E0F501119252
:103F30008A95E9F704CFC8010E94B30D882309F4DC
:103F400003CFEE2009F400CF8091FA02803208F40A
:103F5000BBCF2091F4023091F5023A8329839C82F1
:103F60008B829091F8029D831E828F838091FB0249
:103F70009091FC0299878887CE010196A4CF483C96
:103F8000510598F6882309F4E1CEFE2CEE2009F4C1
:103F9000DBCE8091F5028C1120C08091F402D81202
:103FA0001CC02091FB023091FC028781908528176C
:103FB000390799F49091FA0290FD5ACF907F09F455
:103FC00057CF8091FA028683903F09F44FCF982F04
:103FD000907F905F8F70892B48CFC8010E94B30DEE
:103FE000811172CF8091FA0281608093FA02C80138
:103FF00064D9A5CEA2E1B0E0E0E0F0E20C94CB2CD5
:104000000A871B872C873D874E875F87688B798B54
:104010008A8BCE010A965DDE81110CC089E0FE011B
:104020003A96DE01119601900D928A95E1F78E8500
:1040300081110BC019E080915105909108058913F9
:1040400031C06296E4E00C94E72C2091080530E042
:10405000C9010196877099274091510548171906A3
:1040600099F099E0929FD001939FB00D1124A75F22
:10407000BA4FFE01319601900D929A95E1F7809327
:1040800008050E94C60CD6CF0E943F0F109208056B
:104090001092510589E0E4EFF2E0DF011D928A956C
:1040A000E9F7C8CF819FC0011124875F9A4F11DEC5
:1040B000882339F28091510590E001968770992705
:1040C00080935105B8CFEF92FF920F931F93CF9338
:1040D000DF9380916F04882361F0E0916E048DE09E
:1040E000F82E80916F04E81748F010926F04109238
:1040F0006E04CDB7DEB7E6E00C94E52CEE24E39435
:10410000EE0EE0926E04CE2FD0E0EF9DF001112470
:10411000E059FB4F84818823E1F087819085892BCA
:1041200021F481859285019651F4008111812281CB
:104130003381448155816681778180855BDFFC9E78
:10414000F001FD9EF00D1124E059FB4F14821092F6
:104150006D04EE2DC6CF1092E3041092E20410928B
:1041600081018091E1048093E0040E944D09ABCF6E
:10417000A9E0B0E0EEEBF0E20C94C92C7B01DB018E
:1041800012968D919C91892BB9F087E0FE013196B2
:10419000DF011D928A95E9F71FD8282F8B839C8316
:1041A000F70182819381782F09811A813C8144E053
:1041B0005E816F81892F1EDFD70115961C9229968B
:1041C000E6E00C94E52CB0E0A0E0E9EEF0E20C941F
:1041D000BD2CC091E004E7E08E2EEE24E394F12C98
:1041E000ADE09A2EB4E02B2E8091E1048C1308C030
:1041F0006ADF0E944D09CDB7DEB7E2E10C94D92CFD
:10420000D0E0FE01EE0FFF1FE852FB4F008111814D
:10421000B0E0A0E00930110538F4809ED001819E05
:10422000B00D1124AE5BBE4F14968C911497811182
:1042300058C030906F0420E734E090E080E0412CDB
:10424000831508F04BC0F901C384D4846D907C9031
:1042500011974FEF5FEF512CA52CB12CF501EE0F0C
:10426000FF1FE60DF71D65917491C616D70609F478
:10427000A501672B11F05394EFCF4F3F5407B1F1D5
:10428000B70102C0660F771F4A95E2F7462AA701D9
:10429000052C02C0440F551F0A94E2F74150510902
:1042A0004416150609F512962D913C911397989E88
:1042B000F001999EF00D1124E059FB4F30872783C0
:1042C0002482108211821287018771E015967C93F7
:1042D0001597571203C0BD01C8014ADFC8010E94EB
:1042E0001A092196C37080CFF90114820196235FC9
:1042F0003F4FA6CFACE0B0E0E0E8F1E20C94C22C76
:104300008E010F5F1F4F88E0D8011D928A95E9F753
:1043100084ECC82E81E0D82EF12CE12CAA24A394A1
:10432000B12C2EEC822E21E0922EF60181916F01AC
:104330008F3F09F442C0F894E82FE295EF70F0E067
:1043400021A18F70A50102C0440F551F8A95E2F785
:10435000CA01922F982B91A392A18095892382A3C1
:10436000789400C0E8ECF1E0712C31E021912F3F0E
:1043700009F4A3C0A22FA295AF70B0E090968C91E3
:1043800090E02F7002C0959587952A95E2F780FD01
:1043900094C0832F782A330F8E169F0639F7F601C3
:1043A000319780818F3F11F00E94400A50EA5A9560
:1043B000F1F7F801EE0DFF1D70828FEFE81AF80A91
:1043C00094E0E916F10409F0B0CF48E050E0B801FC
:1043D00083E693E00E94312D009741F028E0F80138
:1043E000A3E6B3E001900D922A95E1F700916C03EA
:1043F00010E001591C4F892B09F461C081E08093C2
:104400002C030E94EC1890932B0380932A03F12C29
:10441000E090E404EE2009F4B0C019861A861B86E9
:104420001C8680915E038A3008F06FC048E656E132
:10443000BE01675F7F4FC8010E94B213882309F451
:104440008BC042E857E1BE01675F7F4FC8010E9401
:10445000B213882309F480C04EE056E1BE01675FC5
:104460007F4FC8010E94B213882309F475C049E543
:1044700057E1BE01675F7F4FC8010E94B2138823D6
:1044800009F46AC010925E0380916B0390E044E0EF
:1044900050E0BE01675F7F4F81599C4F0E94312DD4
:1044A00021E020933303892B09F048C0E12C8E2DA5
:1044B0008F292C96EDE00C94DE2C80E06BCFF090F1
:1044C0002C03FF2009F4A3CFC0902A03D0902B0324
:1044D0000E94EC188C199D09059708F498CF44E0C8
:1044E00050E063E673E0C8010E94312D892B59F03A
:1044F00084E0E3E6F3E0D80101900D928A95E1F7BC
:1045000010922C0385CFF12CFBCFC0902D03D090BF
:104510002E030E94EC188C199D09843F914008F0ED
:1045200085CF80913303882309F2FE01399684E018
:10453000DF011D928A95E9F710923303E0916B0336
:10454000F0E0E159FC4F89859A85AB85BC85808375
:104550009183A283B383ABCF80915E038F3F31F011
:104560008F5F80935E038A3008F48ECF0E94EC1830
:1045700090932E0380932D03D4CFC0906B03D12C46
:10458000F601E159FC4F6F0184E0F801A1E4B3E0CA
:1045900001900D928A95E1F781E493E00E94DA069A
:1045A0008093400384E0E5E4F3E0D60101900D92AE
:1045B0008A95E1F78090490390904A03A0904B03BD
:1045C000B0904C0380912F0390913003A091310360
:1045D000B091320388169906AA06BB06B1F0809204
:1045E0002F0390923003A0923103B09232030E94C5
:1045F0004B08861A970AA80AB90A80925F0390921C
:104600006003A0926103B092620388E0EDE4F3E0FE
:10461000A5E5B5E001900D928A95E1F748CFACE1B0
:10462000B0E0E5E1F3E20C94BD2C4B8B5C8B6D8B21
:104630007E8B8F8B988F911110926D04188A198A36
:104640001A8A86E0FE017396DE011A9601900D9299
:104650008A95E1F78E858823D9F061E0CE010A962C
:104660000E94FF0D61E0CE010A960E94FF0D61E0FD
:10467000CE010A960E94FF0D6C018F8520E5C216BF
:104680002CE7D20681F4882319F181E0809381011F
:104690000A851B852C853D854E855F8568897989CE
:1046A0008A89A8DCD0C031E5C3163CE7D30621F4E3
:1046B000882371F050DDECCF42E5C4164CE7D406F8
:1046C00039F4882329F0809181018111F3CFDDCF66
:1046D00002E411E0512CF12CE12C88248394912CDC
:1046E00044244394F80140815181AA24AA94BA2C0D
:1046F000312C232D30E0F901EE0FFF1FE40FF51FE1
:1047000085919491C816D90609F45901892B11F0A5
:104710003394EFCF80E0FFEFAF16BF0609F455C02A
:10472000F801248021100DC080918101882349F077
:1047300080918803909189030E94DB0D7724739404
:104740008111712CF72DF1707F2EF8016580868123
:104750009F85992309F400C1772009F4FDC06110F9
:1047600014C094010A2C01C0220F0A94EAF7822B8C
:10477000868380916B0490916C04C29730F422E39D
:1047800030E030936C0420936B04C401032C02C00E
:10479000880F991F0A94E2F70197F80126812817DC
:1047A000190609F0CAC0A090E204B090E304A11475
:1047B000B10409F44CC00E94EC188A199B09C397F4
:1047C00008F445C0F801448281E0582AFFEFEF1A4F
:1047D000FF0A095F1F4F29E0E216F10409F082CFBA
:1047E0008F85882309F4F7C0552009F4F4C00E948E
:1047F000EC189093E3048093E20480916F04883076
:1048000010F591E0980F90936F0499E0FE013A96AD
:10481000DE01119601900D929A95E1F73DE0839F9C
:10482000C001112480599B4F29E0FE013196DC0123
:1048300001900D922A95E1F72FEF3FEFFC013287AF
:104840002187D486C3866C96E2E10C94D92C8091A2
:10485000E0046091E104982FF0E0E0E0861314C0DA
:104860009093E004E017F10709F467C090E0FC01C1
:10487000EE0FFF1FE852FB4FF182E082019683703A
:1048800099278093E10459C0A82EB12CF501EE0FB1
:10489000FF1FE852FB4F20813181B0E0A0E02930BA
:1048A000310540F4F7E0F29FD001F39FB00D1124E1
:1048B000AE5BBE4F2D913C9111973C8F2B8F312CCD
:1048C00070E0612CE62DF0E0EE0FFF1F2B8D3C8D8C
:1048D000E20FF31F2591349121153105E1F0F80124
:1048E0000190F081E02DFA8FE98F70E005C0241768
:1048F000350709F4372C7F5FE72FF0E0EE0FFF1F3D
:10490000498D5A8DE40FF51F45915491411551057C
:1049100071F76394D7CF332029F0761530F0FD017D
:10492000109721F4F0E0E0E011C0F80144820E1786
:104930001F0729F49093E004732C872D46CF891329
:1049400005C0EA17FB0711F49F5F937095012F5F75
:104950003F4F822F837082CF90E061101FC094017F
:10496000032C02C0220F331F0A94E2F721503109B1
:104970008217930729F4222061F1C7010E941A09C6
:10498000C4010A2C01C0880F0A94EAF7982F909569
:10499000F801868189238683762CCFCF9C010A2C4F
:1049A00002C0359527950A94E2F7A9014170552771
:1049B000BC016150710986239723892B31F4452B63
:1049C00021F0B801C701D4DBDBCFF22FF1706F2EDD
:1049D000D7CF672CD5CF9091E0048091E104981750
:1049E00031F0F1DBF1E05F1609F42DCF51CE6BDB36
:1049F0001092E3041092E2040E944D09F3CFA6E066
:104A0000B0E0E4E0F5E2C7C70E94EC188C018091A9
:104A10002803909129038017910779F019821A824F
:104A20000E94EC18682F49815A81792F80E090E02C
:104A3000F6DD10932903009328032696E4E0C7C708
:104A40001F921FB61F9211248F939F93AF93BF9312
:104A50008091EE04811113C08091EF049091F004D5
:104A6000A091F104B091F2044196A11DB11D809373
:104A7000EF049093F004A093F104B093F204BF917B
:104A8000AF919F918F911F901FBE1F901895CDB72A
:104A9000DEB728970FB6F894DEBF0FBECDBF85B73F
:104AA000806885BF85B7806885BF84B7877F84BFEE
:104AB0000FB6F894A895809160008861809360009B
:104AC000109260000FBE80E890E00FB6F8948093DB
:104AD0006100909361000FBE81E0809385018EE3B9
:104AE0009AE09093AD028093AC020E94F1060E947E
:104AF00092078091E20084608093E2007894809134
:104B0000FE048823A1F01091E9001F709091EC0041
:104B1000892F817090FD80E8182B1092E900809118
:104B2000E80083FD0E945D0F1F701093E90082E092
:104B300084BD93E095BD9AEF97BD80936E0010926F
:104B40005F031092600310926103109262038091E0
:104B5000D80080618093D8002AE12A95F1F700C03F
:104B60008091D900182F117080FD04C00E94F106B9
:104B70001092FE041093E4041093E50411118FC009
:104B800094E090936C0384E0891B80936B0384E929
:104B90000E94400A86E60E94400A87E90E94400A75
:104BA00086EC0E94400A08EC11E08EECE82E81E0D1
:104BB000F82ED8018D918D018F3F11F00E94400A8F
:104BC000E016F106B1F788E0EFE6F3E0DF01282F09
:104BD0001D922A95E9F7E3E6F3E0DF011D928A953D
:104BE000E9F790E080E06BD7833E9E4F79F163EE6A
:104BF0007EEF90E080E091D760E082E090E073D7B4
:104C000081E090E090936E0380936D0361E083E018
:104C100090E069D760E074E184E090E07ED70E9484
:104C2000DC1540E050E0BA018FE090E06ED740E044
:104C300050E0BA0183E190E068D748E050E067E1D6
:104C400070E085E595E040D710925D0582E090E048
:104C50002ED780937F0384E090E031D79093ED04CA
:104C60008093EC0447DBEFEFF6E721E0E150F04002
:104C70002040E1F700C000003DDB8091E504E4E066
:104C80008111E0E0F0E0E159FC4F808181FF0FC02D
:104C90006FEF7FEF90E080E040D70E94681306D569
:104CA0008091E504882309F46BCF90E06ACF83E01C
:104CB00090E0FDD690E00E94AE0D0E946A0981E06E
:104CC00080935D0548E050E067E170E085E595E0A0
:104CD000DED610925D05809155058C7F11F40E94FF
:104CE000DC158091E4048111D8C082E08093B50383
:104CF00080E880935E058CD36BE070E085EF94E0F4
:104D00000E94E5138823E9F18091B50365E070E026
:104D100081FDC5C080EF94E00E94E513882389F1EE
:104D20006DE070E08EED94E00E94E513882349F178
:104D30000E944B08605A75418F4F9F4F6093C30389
:104D40007093C4038093C5039093C603E1E6F5E036
:104D500080E092E0DF019C011D9221503040E1F79C
:104D6000F0936807E09367078FEF9FEF90936005DC
:104D700080935F0581E08093C8038093C7031092FE
:104D8000B6038091E404811101C093D488E291E0DC
:104D90009093E9048093E80422242394312C809199
:104DA000FE0410E400E1A2E1FA2E853009F4D1C03E
:104DB000A1DAE0E8AE2EE3E0BE2EFFE68F2EF3E0B0
:104DC0009F2ED401F50191918D9128E833E02E17A3
:104DD0003F0709F4C8C09817B1F34090E40477E79F
:104DE000E72E73E0F72ED12CD401CD904D01F501C3
:104DF00061905F016C1409F444C06C2410E000E081
:104E000077247394872D862199F1572C5C204420B8
:104E100009F1D7018C9190E09101002E02C0220F80
:104E2000331F0A94E2F782239323892B99F4098391
:104E3000DA820E94EC189C838B83B1E0BD8391E001
:104E4000511001C090E09E8349815A816B817C8121
:104E50008D81E5DB51100CC0C101002E01C0880F0F
:104E60000A94EAF7982F9095F7018081892380832F
:104E7000770C0F5F1F4F0630110521F6F5013197B2
:104E8000C082D394FFEFEF1AFF0A28E0D212ACCF12
:104E90000E94570ABB24B3946AC080E027CF8BEEF0
:104EA00094E03ACF8091FE04843039F10E943314AB
:104EB0000E94F2131092EE0488E190E00FB6F8948D
:104EC000A895809360000FBE1093600083B7817F28
:104ED000846083BF83B7816083BF7894889583B7EC
:104EE0008E7F83BF0FB6F894A8958091600088618B
:104EF00080936000109260000FBEFCD9EFE6F3E0F3
:104F0000A7E7B3E080E021912D9391E0211101C04A
:104F100090E0892B93E0E737F907A9F78823C9F0D8
:104F20008091FD048823A9F009BDF9BC09B400FEF5
:104F3000FDCF8091D8008F7D8093D8008091E000D4
:104F400082608093E0008091E00081FDFCCF0E94B0
:104F50003F0F8091FE04853009F4A4CF0E943F0FDB
:104F60000E94070925CF981338CF49DDB12C8091D5
:104F7000E404882331F180918101882311F10091AB
:104F8000E2041091E30401151105D9F00E94EC1818
:104F9000801B910B20916B0430916C04281739070A
:104FA00080F49091E0048091E104981709F444C0E2
:104FB0000AD910926C0410926B041092E3041092C0
:104FC000E2040E9433148091C803882309F49CC032
:104FD0000091B7031091B8030E94EC18801B910B4D
:104FE000C29708F471C00E94EC189093B8038093A4
:104FF000B70381E695E090936807809367078091F7
:10500000E404882309F4D7C081E295E00E94AA0E47
:1050100080918803909189030E94DB0D813009F40F
:1050200082C0882369F0823009F480C0833009F49B
:1050300080C080E095E006C046D80E944D09BDCFF3
:1050400089E195E00E94E80E80919403805D0E94C2
:105050002B0E8FE295E00E94AA0E80919303805D53
:105060000E942B0E8BE295E00E94AA0E40909103C5
:105070005090920380913201909133014816590665
:1050800009F05AC080919003803209F055C0EAE8D7
:10509000F3E08F0181918032E1F3F801019000206B
:1050A000E9F79F012150310979010E151F0508F418
:1050B0007CC089E295E00E94AA0E809134010E9492
:1050C0002B0E81E00E94B70E80915F0590916005E4
:1050D000892B09F075C08091C7038823A9F00E942D
:1050E0004B080091C3031091C4032091C503309174
:1050F000C603601B710B820B930B6F3F7F4F8F4F6B
:105100009F4710F40E94F213B1100E940C140E94E9
:1051100007099091B903891709F441CE8093B90327
:105120000E944B083CCE83E195E08CCF8DE095E06A
:1051300089CF86E095E086CF5092330140923201CC
:1051400080E280939003712C612C10928F035AE8B7
:10515000C52E53E0D52E65E8E62E63E0F62E8601D7
:10516000C301B2012AE030E040E050E049D4605D84
:10517000603319F4C016D10631F0411451046104B2
:10518000710409F460E2D80114966C93C301B20172
:105190002AE030E040E050E033D429013A010150E8
:1051A0001109E016F106E1F672CFD8018D918D015B
:1051B0000E942B0E7ACF81E395E00E94AA0E84CF45
:1051C0008091C803882309F486CF8091B6038111AA
:1051D00082CF0E940C1420915F053091600521154B
:1051E000310509F478CF80E0882E912C3101082E0A
:1051F00002C0660C771C0A94E2F7A30142235323F2
:10520000452B11F48F5FF0CF9091B50390FF95C0BF
:10521000880F880F880F8093370110923A01895FB9
:105220008093380183E080933B0124E630E047E03F
:1052300050E065E371E088E71FD1892B09F04BCF7F
:1052400095E0880C991C9A95E1F78091B50380FF51
:1052500086C0E5E9F3E080E2DF011D928A95E9F777
:10526000E2EDF1E0F887EF838EECC82E81E0D82ED6
:1052700007E0AF81B8852D91B887AF83F6014190E3
:105280006F01480C592C511CC2018F599A4F2C01A7
:10529000E22FF0E0EB56FC4F90E080E0E02EE81AC1
:1052A000122D082E01C0110F0A94EAF7A20170E036
:1052B000DA016D91AD0161232E2D271B2770F22E8F
:1052C000022E000C330BB62F01C0BB0FFA94EAF785
:1052D000FB2E3195219531092770332701C0669542
:1052E0002A95EAF7F62A6081F62AF0827F5F783005
:1052F000F9F6019631968830910581F6EF81F885AF
:10530000E65DF14009F0B5CF04E610E020E230E0C0
:1053100045E953E060E488E72FD1892B09F0DBCE23
:105320006094709480915F05909160056822792265
:105330007092600560925F05CECE8295880F807670
:1053400080933701940136952795369527952093BC
:105350003A01815E8093380120933B0166CFA4011E
:105360004F595A4F04E610E020E230E0D3CFEF92DD
:10537000FF920F931F93CF93DF93182FEB0110929F
:10538000BC0084EA8093BC000E94EC187C018091F0
:10539000BC0087FF27C08091B900887F883029F042
:1053A0008091B900887F803181F51093BB0084E83B
:1053B0008093BC000E94EC188C018091BC0087FF98
:1053C0001DC02091B900287F90E080E0283191F045
:1053D00081E090E0203411F490E080E09195819597
:1053E000910908C0C7010E94F818C817D90778F6B4
:1053F0008EEF9FEFCDB7DEB7E6E0E7C2C8010E94AF
:10540000F818C817D907C8F6F3CF8FEF9FEFF2CF80
:105410001092B9008CE08093B80008950F931F9309
:10542000CF93DF93EB018093BB0084E88093BC00B3
:105430000E94EC188C018091BC0087FF11C0209164
:10544000B900287F81E090E0283211F490E080E0FC
:10545000919581959109DF91CF911F910F910895B9
:10546000CF3FDC0741F3C8010E94F818C817D907DD
:1054700010F78EEF9FEFEFCFB0E0A0E0E1E4FAE2AB
:1054800081C2782E5B016A0189010E94EC184C01EF
:10549000C1E0D0E00431110550F0C5E0D0E00F3F8D
:1054A000100729F0C80164E170E053D2EB01BE019E
:1054B000872D5DDF7C0197FF09C00F3F1007B9F30F
:1054C000C4010E94F8180817190788F7E501CA0CEB
:1054D000DB1CCC15DD0511F0F7FE08C084E98093D4
:1054E000BC00C701CDB7DEB7EDE068C2B801899155
:1054F00095DF7C01EECFB0E0A0E0E0E8FAE242C246
:10550000782E5B016A0189010E94EC184C01C1E010
:10551000D0E00431110550F0C5E0D0E00F3F100796
:1055200029F0C80164E170E014D2EB01BE01872DBF
:105530001EDF7C0197FF09C00F3F1007B9F3C401BC
:105540000E94F8180817190788F7E501CA0CDB1C38
:10555000CC15DD0511F0F7FE08C084E98093BC008E
:10556000C701CDB7DEB7EDE029C2FE018491B801D5
:1055700055DF7C012196ECCFB0E0A0E0E1ECFAE24F
:1055800000C2682E762E5A0169010E94EC184C0167
:10559000C1E0D0E00431110550F0C5E0D0E00F3F8C
:1055A000100729F0C80164E170E0D3D1EB01BE011E
:1055B000862DDDDE7C0197FF1BC00F3F1007B9F37E
:1055C000C4010E94F8180817190788F784E9809326
:1055D000BC00C701CDB7DEB7EEE0EFC1B8018991DD
:1055E0001DDF7C01CC16DD0689F3F7FEF7CFEECF89
:1055F000B801872D13DF7C01E501CA0CDB1CF2CF5B
:105600008EE14A9B02C08150E1F74A9BFECF08958C
:105610005A9880E28A95F1F75A9A0895FC013BE086
:105620003A95F1F798E020E080E031E040E14A95DA
:10563000F1F7880F4A9B02C08160232742E04A9518
:10564000F1F7000040E14A95F1F7915079F790E1C8
:105650009A95F1F799B132E03A95F1F7000040E1FF
:105660004A95F1F792FB992790F992272081920FA2
:1056700090830895A1E0B0E0EFE3FBE28AC11982D4
:105680008C017C01E60EF11C0E151F0539F481E03A
:105690009981911180E02196E6E097C1B1DFCE01BA
:1056A0000196BCDFF80181938F01EECF529A5A9A8E
:1056B000089552985A9AEA9AE9E6F0E080818F7C40
:1056C000808308956150770B91E001C0990F6A952E
:1056D000EAF720E031E0911108C0222391F05A9AB4
:1056E00080E28A95F1F75A980895492F482339F0B6
:1056F0005A9A232740E24A95F1F79695ECCF5A98AB
:10570000F9CF5A98EDCFFF920F931F93CF93DF936A
:10571000EC018C01060F111DC017D10721F4CDB784
:10572000DEB7E5E053C1F99073DF68E08F2DCADF83
:10573000F3CF1F920F920FB60F9211240F931F9366
:105740002F933F934F935F936F937F938F939F9389
:10575000AF93BF93EF93FF93CF93DF930F92CDB7A8
:10576000DEB719824DDFCE01019658DF082F06956E
:1057700006950695282F22952570902F9570290F54
:10578000922F937026952695920F9827977089816E
:10579000982B09F058C0063008F055C080E18A9572
:1057A000F1F75A9A529A82E08A95F1F700C05A9816
:1057B00088E0089F80011124D801A050BF4F1696A1
:1057C000ED91FC9117973097A9F06091C20170910B
:1057D000C30114962D913C911597260F371F1196F2
:1057E0008D919C911297680F791F13964C91139786
:1057F0008C910995F801E050FF4F6381662349F0D1
:105800002091C2013091C30184819581820F931F41
:105810007ADFFEDE80E18A95F1F75A9852985A9A1B
:1058200080E18A95F1F7F801E050FF4F608166232F
:1058300049F02091C2013091C30181819281820F90
:10584000931F18DFDDDE0F90DF91CF91FF91EF9175
:10585000BF91AF919F918F917F916F915F914F9188
:105860003F912F911F910F910F900FBE0F901F909E
:1058700018950F931F93CF93DF93EC0106970CF0CD
:1058800049C0F894529A5A9885E08A95F1F7000039
:105890009C2F969595708C2F8570980F892F83700B
:1058A0009695969523E0CC0FDD1F2A95E1F7980F8A
:1058B0008E01092BADDE00C068E0802F03DF80E1A0
:1058C0008A95F1F752985A9A4A9B1DC087E090E05A
:1058D0004A991BC0FE01E050FF4F63816623F1F03F
:1058E0002091C2013091C30184819581820F931F61
:1058F000C1DE811113C0529A5A9A7894DF91CF91E8
:105900001F910F91089500C0DFCF019729F4529A9B
:105910005A9A789480E0F2CF00C0DACF71DE80E24C
:105920008A95F1F75A98529A80E18A95F1F7C0501A
:10593000DF4F6881662349F02091C2013091C30195
:1059400089819A81820F931FDEDE62DE789481E086
:10595000D5CFAA1BBB1B51E107C0AA1FBB1FA617AF
:10596000B70710F0A61BB70B881F991F5A95A9F708
:1059700080959095BC01CD0108952F923F924F9252
:105980005F926F927F928F929F92AF92BF92CF92CF
:10599000DF92EF92FF920F931F93CF93DF93CDB7D8
:1059A000DEB7CA1BDB0B0FB6F894DEBF0FBECDBF50
:1059B00009942A88398848885F846E847D848C8421
:1059C0009B84AA84B984C884DF80EE80FD800C812A
:1059D0001B81AA81B981CE0FD11D0FB6F894DEBF0D
:1059E0000FBECDBFED010895991B79E004C0991F4A
:1059F000961708F0961B881F7A95C9F78095089529
:105A0000A1E21A2EAA1BBB1BFD010DC0AA1FBB1FC2
:105A1000EE1FFF1FA217B307E407F50720F0A21B34
:105A2000B30BE40BF50B661F771F881F991F1A94A1
:105A300069F760957095809590959B01AC01BD01CB
:105A4000CF010895EE0FFF1F0590F491E02D09940A
:105A5000FB01DC0102C005900D9241505040D8F787
:105A60000895FB01DC0104C08D910190801921F49F
:105A700041505040C8F7881B990B0895FB01DC0189
:105A800002C001900D9241505040D8F70895DC01BA
:105A9000CB01FC01F999FECF06C0F2BDE1BDF89A39
:105AA000319600B40D9241505040B8F70895F999DD
:105AB000FECF92BD81BDF89A992780B50895A8E1DF
:105AC000B0E042E050E0E5CFDC01A40FB51F41504B
:105AD000504040F0CB01840F951F2E9105D04150CE
