:1000000069C6000084C6000082C600000C94682BFC
:100010007EC600007CC600007AC6000078C60000DC
:1000200076C6000074C600000C94B0170C946C17D0
:100030000C94EF246CC600006AC6000068C600007D
:1000400066C6000064C6000062C6000060C600000C
:100050005EC600000C9497185AC6000058C60000EF
:1000600056C6000054C6000052C6000050C600002C
:100070004EC600004CC600004AC6000048C600003C
:1000800046C6000044C6000042C6000040C600004C
:100090003EC600003CC600003AC6000038C600005C
:1000A00036C6000034C6000032C6000018451200F3
:1000B00000000F000600000004000800000011000E
:1000C0000700000037003800000010001300000097
:1000D000110006000000070006000000202020207C
:1000E0006162636465666768696A6B6C6D6E6F7088
:1000F0007172737475767778797A31323334353634
:1001000037383930524542545F2D3D5B5D5C233BAF
:1001100027602C2E2F20202000000D000900100049
:100120001300000000001500160011000700000079
:1001300000001B470A000F0006000000000000003E
:10014000000000001700215200001D00340038009C
:100150003700000000000B000C0008000400000045
:1001600000000E461C0012001845000000000000B0
:10017000000008522C002452000000001D0106015E
:1001800019011B010000437E427E417E407E00003B
:10019000000000000000000000000000000000005F
:1001A000000000000000000000001C011D0106010D
:1001B00019011B0100004F0052005100500039008E
:1001C00000004D004B004E004A00490000000000B6
:1001D000000000004C002A000000000000000000A9
:1001E000000000000000000000000000000000000F
:1001F00000000000000000000000000000000000FF
:1002000000000000000000000000000000000000EE
:1002100000000000000000000000000000000000DE
:1002200000000000000000000000000000000000CE
:1002300000000000000000000000000000000000BE
:1002400000000000000000000000000000000000AE
:10025000000000000000000000000000000000009E
:10026000000000000000000000000000000000008E
:10027000000000000000000000000000000000007E
:10028000000000000000000000000000000000006E
:10029000000000000000000000002F0024002500E6
:1002A00026003000000033002100220023002E0031
:1002B000000035001E001F0020003100000000007B
:1002C0000000370027002D000000000000000000A3
:1002D000000000000000437E427E417E407E000020
:1002E00000000000E6000000000000000000000028
:1002F000000000000000000000002F022402250280
:1003000026023002000033022102220223022E02C2
:10031000000035021E021F02200231020000000010
:100320000000260227022D0200000000000000004D
:10033000000000000000E300E200E000E100000037
:1003400000000000E60000000000000000000000C7
:1003500000000000000028000000450040004100AF
:1003600042004600000044003D003E003F00000007
:10037000000043003A003B003C0048000000000041
:10038000000065002C002B000000000000000000B1
:10039000000000000000E300E200E000E1000000D7
:1003A00000000000E6000000000000000000000067
:1003B0000000000000000000000000001D01060118
:1003C00019011B010000E300E200E000E100000071
:1003D00000000000000000002900000000000000F4
:1003E000000000002900280000001C011D0106017A
:1003F00019011B0100004F0052005100500039004C
:1004000000004D004B004E004A0049000000000073
:10041000000000004C002A002B0014001A00080005
:1004200015001700E00004001600070009000A008C
:10043000E1001D001B00060019000500000000007F
:100440000000E2002C0029522A00130012000C00C8
:1004500018001C00340033000F000E000D000B00CC
:100460002946380037003600100011000000000057
:1004700000000052245228002B0014001A0008002B
:1004800015002900E0001E001F00200021002200AE
:10049000E1002300240025002600270000000000C2
:1004A0000000E2002C0000002A00130012000C00E3
:1004B00018001C0034004F005200510050000B0087
:1004C00029463800370036001000110000000000F7
:1004D000000000520000280000DA0281FFD9F1DBA1
:1004E00020A4A62EAF00A0C0D30000A1C8D3000056
:1004F000AED580A81F408D142000556E646566003F
:1005000041646A757374005261697365004C6F775A
:1005100065720044656661756C74004C6179657242
:100520003A20003A002C206B00780080818283847E
:1005300085868788898A8B8C8D8E8F9091929394F3
:10054000A0A1A2A3A4A5A6A7A8A9AAABACADAEAF33
:10055000B0B1B2B3B4C0C1C2C3C4C5C6C7C8C9CAAA
:10056000CBCCCDCECFD0D1D2D3D40000010101016C
:10057000010101010102020202020202020203035E
:10058000030303030303040404040404040505052E
:1005900005050606060606070707070708080808F0
:1005A000090909090A0A0A0B0B0B0C0C0C0D0D0D9D
:1005B0000E0E0E0F0F0F1010111111121213131433
:1005C00014151516161717181819191A1A1B1B1CAB
:1005D0001D1D1E1E1F202021222223242425262605
:1005E000272829292A2B2C2D2D2E2F30313232333A
:1005F0003435363738393A3B3C3D3E3F4041424343
:100600004445464748494A4C4D4E4F505153545526
:100610005658595A5B5D5E5F616264656668696BD6
:100620006C6D6F7072737577787A7B7D7E80828354
:100630008587888A8C8E8F91939596989A9C9EA098
:10064000A2A3A5A7A9ABADAFB1B3B5B7BABCBEC0A5
:10065000C2C4C6C9CBCDCFD1D4D6D8DBDDDFE2E46E
:10066000E7E9EBEEF0F3F5F8FAFDFF00AF00AE05B9
:10067000010980A10185031A01002A8F00160100DB
:10068000268F00950175108100C0050C0901A1019C
:10069000850419012AA002150126A00295017510F2
:1006A0008100C005010906A1018506050719E02999
:1006B000E715002501950875018102050719002934
:1006C000EF1500250195F075018102050819012932
:1006D00005950575019102950175039101C005010C
:1006E0000906A101050719E029E71500250195086C
:1006F000750181029501750881010507190029FF1F
:10070000150026FF009506750881000508190129C6
:100710000515002501950575019102950175039157
:1007200001C009023B00020100A0FA090400000117
:100730000301010009211101000122440007058184
:100740000308000109040100010300000009211150
:10075000010001226F000705820320000112010041
:100760000200000008534601000100010200010CD4
:100770000343006F0072006E006500000010036606
:10078000006F006F007300740061006E00000004D1
:100790000309040000000000003E5B4F5B3E003E8A
:1007A0006B4F6B3E001C3E7C3E1C00183C7E3C1890
:1007B000001C577D571C001C5E7F5E1C0000183C0F
:1007C000180000FFE7C3E7FF00001824180000FF2F
:1007D000E7DBE7FF0030483A060E00262979292694
:1007E00000407F05050700407F05253F005A3CE794
:1007F0003C5A007F3E1C1C0800081C1C3E7F001455
:10080000227F2214005F5F005F5F0006097F017F87
:1008100000006689956A0060606060600094A2FFD5
:10082000A2940008047E04080010207E2010000816
:10083000082A1C0800081C2A0808001E10101010A6
:10084000000C1E0C1E0C0030383E383000060E3EE8
:100850000E060000000000000000005F0000000025
:100860000700070000147F147F1400242A7F2A1237
:100870000023130864620036495620500000080720
:10088000030000001C224100000041221C00002A3D
:100890001C7F1C2A0008083E0808000080703000F9
:1008A0000008080808080000006060000020100828
:1008B0000402003E5149453E0000427F4000007264
:1008C00049494946002141494D33001814127F100F
:1008D000002745454539003C4A494931004121112D
:1008E000090700364949493600464949291E000092
:1008F00000140000000040340000000008142241F1
:1009000000141414141400004122140800020159A8
:100910000906003E415D594E007C1211127C007F99
:1009200049494936003E41414122007F4141413E13
:10093000007F49494941007F09090901003E4141C1
:100940005173007F0808087F0000417F41000020AC
:1009500040413F01007F08142241007F4040404059
:10096000007F021C027F007F0408107F003E41418F
:10097000413E007F09090906003E4151215E007F8A
:10098000091929460026494949320003017F01031C
:10099000003F4040403F001F2040201F003F4038A4
:1009A000403F0063140814630003047804030061EB
:1009B00059494D4300007F41414100020408102085
:1009C00000004141417F0004020102040040404018
:1009D0004040000003070800002054547840007F86
:1009E0002844443800384444442800384444287F8C
:1009F0000038545454180000087E090200182424BA
:100A00001C78007F080404780000447D400000202A
:100A100040403D00007F102844000000417F40001E
:100A2000007C04780478007C08040478003844448E
:100A30004438007C1824241800182424187C007CD6
:100A4000080404080048545454240004043F442477
:100A5000003C4040207C001C2040201C003C4030DA
:100A6000403C004428102844004C9090907C004466
:100A700064544C4400000836410000000077000038
:100A8000000041360800000201020402003C262357
:100A9000263C0000000000000000000000000000F4
:100AA000000000C0E0F0F8F81800C0F0FCFEFFFF06
:100AB000FFFFFFFFFF7E000000000000000000803D
:100AC000C0E0E0E0E0E0E0E0E0C0800000000080A6
:100AD000C0E0E0E0E0E0E0E0E0C080000000E0E056
:100AE000C0C0E0E0E0E00000E0E0C0C0E0E0E0E046
:100AF000E0C0800000000080C0E0E0E0E0E0E0E076
:100B0000E0C08000000000000000000000000000C5
:100B100000E0F0F0F0E0ECEEF7F37020007C7C7C7D
:100B20007E007E7E7E7F7F7F000080C0E07E5B4F08
:100B30005BFEC00000C000DCD7DEDEDED7DC00C01C
:100B400000000000000000000000000000000000A5
:100B5000000000000000000000000000F8FCFEFFA4
:100B6000E000FFFFFFFFFFFF80FFFFFFFFFFFFFF32
:100B7000FFFF1F0701000000000000000000FFFF52
:100B8000FF8100000000000081C3C3C30000FFFF1D
:100B9000FF8100000000000081FFFFFF0000FFFF59
:100BA000FF01000000000000FFFFFF010000000047
:100BB00001FFFFFF0000FFFFFF9D1C1C1C1C1C1CF5
:100BC0009DDFDFDF000000000000000000000000EB
:100BD000000F1F3F7F7F7F7F7F3F1E0C001F1F1F67
:100BE0003F003F3F3F7F7F7F00307B7F783020207A
:100BF00030787F3B0003000F7F0F0F0F7F0F000344
:100C000000000000000000000000000000000000E4
:100C1000000000000000000000000000030F1F3F64
:100C20003F3F3F1F1F3F3F7F7F7F3F3F1F3F7F7FF4
:100C30007F7F7C7878381C0F0000000000000001E6
:100C40000307070707070707070301000000000164
:100C50000307070707070707070301000000070747
:100C60000700000000000000070707000000000068
:100C7000000707070000000103070707070707072A
:100C80000703010000000000000000000000000059
:100C90000000000000000000000000000000000054
:100CA0000000000000000000000000000000000044
:100CB0000000000000000000000000000000000034
:100CC0000000000000000000000000000000000024
:100CD0000000000011241FBECFEFDAE0DEBFCDBF61
:100CE00012E0A0E0B1E0E6E7FBE502C005900D925E
:100CF000A63AB107D9F727E0A6EAB2E001C01D92F3
:100D0000A336B207E1F70E9416250C94602D78C92E
:100D100080915705816080935705089590914F0504
:100D2000937051F08093500560935105493708F056
:100D300048E740935205ECCF0895482F20914B058A
:100D40009091020559E0291302C080E0089530E037
:100D5000529FF001539FF00D1124ED5FFA4F8181F6
:100D6000681306C08081481303C085818111EECFCE
:100D70002F5F3F4F2770E7CFFC01AC014C5F5F4F07
:100D80008FEF91E32191822728E030E087FF09C0AF
:100D9000880F892721503109C9F7E417F50791F722
:100DA0000895880FF7CFE8EDF0E080818E7F808393
:100DB0001092E2001092DA001092E100A0EEB0E092
:100DC0008C9181608C9380818F77808319BCA7ED93
:100DD000B0E08C918E7F8C9380818F7E8083109287
:100DE000ED0408952091E4003091E50095E6A90115
:100DF0002091EC00822F817020FF06C08091E800D6
:100E000080FF06C080E008952091E80022FD1AC00E
:100E10008091F804882389F0853089F08091EB0077
:100E200085FD0FC02091E4003091E5004217530783
:100E3000F9F29150E1F684E0089582E0089583E0AC
:100E4000089581E008958091FA0487FF13C080918E
:100E5000E80082FF06C08091E8008B778093E8006D
:100E600004C08091F8048111F2CF08958091F804B4
:100E70008823D9F38091E80080FFF8CF8091E800C3
:100E80008E77ECCF982F9093E900242F762F50E0A7
:100E9000891731F07091EC002091ED005091F00035
:100EA00021FD07C09F5F973071F78093E90081E0D3
:100EB00008953091EB003E7F3093EB003091ED00D0
:100EC0003D7F3093ED003091EB0031603093EB00CB
:100ED0007093EC002093ED005093F0002091EE0011
:100EE00027FDE0CF80E00895B0E0A0E0EAE7F7E07A
:100EF0000C94962CC8EDD0E088818F7E8883E7ED36
:100F0000F0E080818160808384E082BF81E0809313
:100F1000ED0488818E7F888302EE10E0F801108254
:100F20001092DA0081EEC82ED12CF6011082888151
:100F30008F77888388818068888388818F7D888384
:100F400019BC1092F8041092F9041092F704109250
:100F5000F60490EEE92EF12CF70180818B7F8083DF
:100F600088818160888342E060E080E08BDFF60169
:100F700080818E7F8083F801808181608083808181
:100F800088608083F70180818E7F80838881806183
:100F90008883CDB7DEB7E8E00C94B22CFC018091D9
:100FA00000059091010586179707A0F0611571055E
:100FB00029F49091E8009E779093E80090E0611505
:100FC000710551F4911108C08091E80082FF34C08E
:100FD00080E00895BC01F2CF8091F8048823C1F12C
:100FE0008530C1F18091E80083FD30C08091E80038
:100FF00082FDEACF8091E80080FFE1CF8091F3008D
:101000002091F200382F6115710519F02830310553
:1010100058F091E02830310509F090E02091E80087
:101020002E772093E800CBCF81918093F10061501F
:1010300071092F5F3F4FE7CF8091F804882341F07B
:10104000853041F08091E80083FFBECF81E00895B4
:1010500082E0089583E00895089587E797E79093E5
:1010600001088093000888E19AE00FB6F894A895EB
:10107000809360000FBE90936000FFCF2FB7F8946D
:101080006091E9047091EA048091EB049091EC0482
:101090002FBF089580917C01089590917D0191303A
:1010A000D1F49091E60497FF16C0E82FE695E695F7
:1010B000E695EE31E0F4F0E0E055FD4F282F277083
:1010C00081E090E001C0880F2A95EAF7809592812F
:1010D000892382830895EAEAF2E09191891303C09B
:1010E000DF0111971C9292E0E03BF907B1F70895F8
:1010F00090917D019130C1F49091E60497FF14C066
:10110000E82FE695E695E695EE31F8F4F0E0E05547
:10111000FD4F877021E030E001C0220F8A95EAF789
:101120008281822B82830895AAEAB2E0EFEF90E0F9
:101130002D91821751F0EF3F19F4211101C0E92FD1
:101140009F5F9630A9F7EF3F09F408950E2E000C2B
:10115000FF0BE855FD4FE6CFA3E0B0E0E2EBF8E08F
:101160000C949C2C2091E4043091E5042817390755
:10117000B1F09093E5048093E404E091E204F091EF
:10118000E304309761F00084F185E02D309739F069
:1011900024E029839B838A83CE01019609952396B7
:1011A000E2E00C94B82CA3E0B0E0E9EDF8E00C9498
:1011B0009C2C2091E0043091E10428173907B1F00C
:1011C0009093E1048093E004E091E204F091E30461
:1011D000309761F00084F185E02D309739F023E0FD
:1011E00029839B838A83CE01019609952396E2E0A9
:1011F0000C94B82C8091DE04882369F0E091E2041D
:10120000F091E304309739F00190F081E02D3097B0
:1012100011F00995089580E00895AC018091DA04F9
:101220006091DB04982F691301C00895292F30E0E5
:10123000F901EE0FFF1FEE52FB4F0190F081E02D00
:10124000E417F507C1F4F0E0E0E04830510540F460
:1012500067E0649FF001659FF00D1124EE5BFE4F87
:1012600041E044839813E1CF2F5F3F4F2370332732
:101270002093DA0408952F5F3F4F922F9370D3CFBE
:101280001092660410926504E2E4F1E08AE791E0CE
:101290002581211102C01482168237968E179F076E
:1012A000B9F70895FC01EE0FFF1FE80FF91FED538A
:1012B000FC4F6183408322830895539A0895E091FF
:1012C0005405EF3F89F0E53069F0E23019F0E111A3
:1012D0000DC0E3E0E150F0E0EF55FD4F80818093D9
:1012E000540516CDE1E0F6CFE3E0F5CFE0E0F3CF33
:1012F000E0915405EF3F61F0E53061F0E23061F4D8
:10130000EF5FF0E0EF55FD4F80818093540500CDF5
:10131000E0E0F6CFE1E0F4CFE0E0F3CFEFE4F5E09A
:10132000248130E1231B08F420E02483F1CCEFE496
:10133000F5E0248130E1230F08F42FEF2483E8CC7B
:10134000EFE4F5E0438120E1421B08F440E08181B5
:10135000628190E0E3CCEFE4F5E0438120E1420FCD
:1013600008F44FEF8181628190E0D8CCEFE4F5E0A2
:10137000628120E1621B08F460E08181438190E09A
:10138000CDCCEFE4F5E0628120E1620F08F46FEF6D
:101390008181438190E0C2CCEFE4F5E0818143811B
:1013A00062818850990BBACCEFE4F5E0818190E03E
:1013B000438162810896B2CC80914F05837031F0F1
:1013C000846080934F0510924101A2CC08958091D2
:1013D0004F05837031F0846080934F051092410176
:1013E00097CC0895EFE4F5E0808191E08927808330
:1013F000109241018DCC9BE0899F802D1124980F84
:10140000973308F096E32091DF04222321F09C31EA
:1014100028F09BE108958B3108F48BE10895FF9249
:101420000F931F93CF93DF93182F062FF42ED0E046
:10143000C0E0CE012091DF04222359F0CB3160F0CF
:101440002196C633D105A9F7CDB7DEB7E5E00C94F8
:10145000B52CCB31A8F34B972F2D402F612F22DFD6
:10146000EFCF80E00895F894E82FE295EF70F0E078
:1014700031A1282F2F7081E090E001C0880F2A95BC
:10148000EAF7982F9095932391A392A1892B82A399
:10149000789408950F931F938091DE04882321F0A0
:1014A000EDDD1F910F910895E9DD00915903109131
:1014B0005A0320915B0330915C03600F711F821F00
:1014C000931FEFCF9091E60492FF10C041E0282FC8
:1014D0002471243009F040E031E0282F28712830B1
:1014E00009F030E0431711F02CE0822793FF10C081
:1014F00041E0282F2471243109F040E031E0282F09
:101500002871283109F030E0431711F02CE08227D0
:101510003091E70430FF10C051E0282F21712130B5
:1015200009F050E041E0282F2871283009F040E010
:10153000541711F029E0822731FF10C041E0282F15
:101540002171213109F040E031E0282F2871283144
:1015500009F030E0431711F029E0822794FF02C020
:1015600083FD877E089582389105B9F1B0F4813307
:10157000910509F47DC048F48932910509F46DC0E4
:101580008A32910509F47BC008958533910509F4E9
:101590005FC08933910509F10895833E9105D9F122
:1015A00038F4803E910529F1823E910579F1089544
:1015B000863E9105D9F1873E910509F43EC0843EEF
:1015C000910541F52091E70421FF24C08091E604B4
:1015D00084FD19C087EE90E008952091E604237001
:1015E00009F05AC02091E70423FF14C089E290E07B
:1015F00008952091E60420FD38C03091E70430FFC3
:1016000009C024FF43C090E080E008952091E604E3
:1016100022FDF7CF08952091E60422FD3AC03091D3
:10162000E70430FD39C024FFF5CFEDCF2091E6046B
:1016300023FFF0CF24FDE7CFCDCF2091E60423FD9B
:101640002EC03091E70431FFEECF84EE90E0089594
:101650002091E60425FFDECFC9CF2091E60425FDC9
:1016600021C02091E70423FFD5CF89E390E0D2CFBA
:101670002091E60426FFCECF8AE290E008952091E3
:10168000E60426FFC7CF81E390E0089583EE90E063
:10169000089582EE90E0089580EE90E0089586EE41
:1016A00090E0089585E390E00895972F7830B8F49E
:1016B0006630A8F48A30B0F470E026E0929F600DA6
:1016C000711D1124FB0190E3899FE00DF11D112490
:1016D000EE0FFF1FE85EFE4F85919491089580E024
:1016E00090E0089581E0FCCF1F93CF93DF933BDF21
:1016F000EC01C11580E5D807F0F5C11580E4D807E5
:1017000008F09AC0C03ED10520F5CD3CD10508F0C7
:1017100082C0C83AD10578F4C53AD10508F073C043
:10172000C130D10519F1209709F1C430D105F0F489
:10173000D0E0C0E01BC0C33CD105D0F7C85AD0E010
:10174000CC0FDD1FCB57DE4F0990D881C02DD4645C
:101750000DC0C11580E2D80708F0CDC0C11581E0E9
:10176000D80708F05AC0C83ED10510F7CE01DF9166
:10177000CF911F910895C03682E5D80718F5C0347F
:1017800082E5D80708F068C0C03282E5D80708F0C3
:101790005CC0C11582E5D80708F493C02C2F2695AC
:1017A000269580E2289F900111248C2F8370C1E040
:1017B000D0E002C0CC0FDD1F8A95E2F7C22BD32BFD
:1017C000DD68D4CFC03A82E5D80760F4C03882E53E
:1017D000D80708F456C0CF71D0E0DC2FCC27C46FF7
:1017E000D06AC4CFC03C82E5D80708F45FC0C03ED1
:1017F00082E5D80708F09CCFDC2FCC27CC27DF71FF
:10180000C06FD06AB3CFC55AD0E0CE57DE4FC88183
:10181000D0E0D064ABCFD065A9CF8D2F53DE182F89
:10182000CE019927A0DEC12FD0E0DC2FCC27CC271A
:10183000DF71C82BD92B9ACFCE01992794DECC2704
:10184000DF70C82BD92BD06A91CFCF71D0E0DC2FBD
:10185000CC27C16FD06A8ACF2C2F2695269527706A
:1018600080E2289F900111248C2F8370C1E0D0E08A
:1018700002C0CC0FDD1F8A95E2F7C22BD32BDC68A8
:1018800075CF2C2F26952695277080E2289F9001F2
:1018900011248C2F8370C1E0D0E002C0CC0FDD1F7B
:1018A0008A95E2F7C22BD32BDA6860CF8C2F8F7129
:1018B00009DEC82FD0E0DC2FCC27CC27DF71D06227
:1018C00055CF8C2F8F71FEDD55E0D695C7955A9573
:1018D000E1F7CF70D0E0DC2FCC27282F30E084FF59
:1018E00006C044E0220F331F4A95E1F73327C22B8D
:1018F000D32BD0693BCF8D2F8F71E4DD182FCE0114
:10190000992731DEC12FD0E0DC2FCC27CC27DF7127
:10191000C82BD92BD4CF80959091210398239093F5
:10192000210308958091210390916704892B909160
:10193000F802992391F0892B90917D01913071F4F7
:101940009091E60497FF0AC09EE122EB32E040E06E
:10195000915040F441111092F802089596E02AEA5D
:1019600032E0F5CFF90151919F01552389F34F5F83
:10197000EFCF80914B0590910205981301C0089517
:101980008F5F8770FACFB0E0A0E0E9ECFCE00C9448
:10199000952C7C0100918203109183038091670351
:1019A00090916803082B192BCFE0D0E0CC24C3948E
:1019B000D12CBC2EC6010C2E02C0880F991F0A9490
:1019C000E2F780239123892B49F4219790F7B12CDA
:1019D0008B2DCDB7DEB7E9E00C94B12CB7018C2F7D
:1019E00064DE82DE019789F3F3CFCF93DF93EC01BE
:1019F000CADFBE015ADE78DEDF91CF9108959830BC
:101A000078F5863068F5E82FF0E086E0989FE00DE5
:101A1000F11D11249E2F977083E0F695E7958A9526
:101A2000E1F7EE0FFF1FEE0FFF1FEA52FD4F50E0F0
:101A300040E080E0219130E0092E02C036952795E4
:101A40000A94E2F721703327042E01C0220F0A9472
:101A5000EAF7822B4F5F5F4F4430510559F70895E5
:101A600080E00895983098F5863088F5E82FF0E00A
:101A700086E0989FE00DF11D11248E2F877041E0C4
:101A800001C0440F8A95EAF783E0F695E7958A95B9
:101A9000E1F7EE0FFF1FEE0FFF1FEA52FD4F30E0A0
:101AA00020E070E05191DF011197CB01022E02C0BE
:101AB000969587950A94E2F781708195852784230E
:101AC00085278C932F5F3F4F2430310559F70895B8
:101AD0009093830380938203089521E030E002C055
:101AE000220F331F8A95E2F720953095809182036B
:101AF0009091830382239323EBCF9091F7028095FB
:101B000089238093F702282F277061F4891751F0F9
:101B10009091E70492FF06C0869586958695DDDF55
:101B20001092F702089521E030E002C0220F331F27
:101B30008A95E2F78091820390918303822B932B05
:101B4000C7CF90936803809367030895FC01848155
:101B50008823E9F087819085009789F0C5DD92950B
:101B60009F709630B1F078F4925F9F70923078F465
:101B7000803F19F050F4883E50F481E00895808150
:101B8000918133DFECCF9A5FF0CF843FB1F380E0F7
:101B90000895883E90F3813FD1F7EFCF292F332767
:101BA00040E02115310511F0C90148E09C0164E0D5
:101BB000369527956A95E1F72115310511F04C5FAF
:101BC000C9019C0136952795369527952115310534
:101BD00011F04E5FC90196958795892B09F04F5FEB
:101BE000842F0895A6E0B0E0E8EFFDE00C949B2C74
:101BF0009C01FC01878190850097C9F486E0DE0195
:101C0000119601900D928A95E1F7F901258189815C
:101C10009A81222381F0662371F0B5DE182F682F98
:101C200089819A811FDF69817A81812F3EDD269625
:101C3000E3E00C94B72CE3DE182FF5CFCF93DF93BE
:101C4000682F81E06A3019F06D3029F480E082D08D
:101C5000DF91CF910895809161079091620726E00E
:101C6000FC01ABE5B7E001900D922A95E1F7603EEB
:101C700008F458C026E0FC0111922A95E9F7C091BA
:101C80006107D091620746E050E0BE018BE597E026
:101C90000E94002D9E012B553540892B41F1C90131
:101CA00045E0969587954A95E1F741E050E0BA0105
:101CB00002C0660F771F8A95E2F7CB016091590544
:101CC00070915A05862B972BB9016B5F7F4FE5E02A
:101CD00076956795EA95E1F702C0440F551F6A951E
:101CE000E2F7842B952B90935A05809359052A5F30
:101CF0003F4F40915805642F70E0C9010E94782C35
:101D0000481B463010F4240F311D211572E03707AF
:101D100010F030E020E0255A3A4F309362072093CC
:101D2000610796CFF6E06F9FB00111246D56784F92
:101D300046E050E00E94F72CA2CFCF93DF93EC0156
:101D4000FE018491811103C0DF91CF91089576DF68
:101D50002196F6CFCF93382FE0916107F09162077B
:101D6000EB55F54020915805622F70E0CF010E949D
:101D7000782C281B822F332359F066E00E94C32C55
:101D8000C82FC15010F4CF91089580E257DFF9CFEA
:101D90009F01280F311D2115324018F080E0F0E03E
:101DA000E0E08E0F9F2F911D855A9A4F9093620706
:101DB00080936107E8CFC1DF81E0CCCF80917D01C6
:101DC000813061F58091E60487FF28C0ABDD809308
:101DD000B10240E250E069EF72E080EB92E00E94D5
:101DE000002D892BD1F080E2E0EBF2E0A9EFB2E028
:101DF00001900D928A95E1F7E091E204F091E304FD
:101E0000309759F00480F581E02D309731F086E06D
:101E10008093B00280EB92E00995089583DD809372
:101E2000A80248E050E069E173E088EA92E00E948D
:101E3000002D892B91F388E0E8EAF2E0A9E1B3E014
:101E400001900D928A95E1F7E091E204F091E304AC
:101E5000309719F30280F381E02D3097F1F288EA90
:101E600092E0DACF1092210380917D018130A1F4BC
:101E70008091E60487FF10C0E2EBF2E08EE1DF0123
:101E80001D928A95E9F790E080E08DD990E080E09E
:101E900063D91092670492CFEAEAF2E086E0EFCFCE
:101EA000AAE2B0E0E6E5FFE00C949B2C8AEF94E018
:101EB0002091F100FC012193CF01F5E082309F07D2
:101EC000B9F78091FB04833009F46FC0B8F4813016
:101ED00009F447C0823009F4B3C08091E80083FF61
:101EE00087C28091FA049091FB049A3008F080C276
:101EF000E92FF0E0EE59F24D0C94F12C8A3009F400
:101F00008EC08B3009F46EC0893039F78091FA04A5
:101F1000813219F78091FE049091FF040297E8F650
:101F20008091E800877F8093E8008091E80082FF3D
:101F300037C09091F3008091F200029731F48091C4
:101F4000F100813011F0863021F48091F10080930E
:101F50007C018091E8008B778093E8000E94230742
:101F6000BCCF8091FA04813A09F0B7CF8091E800A4
:101F7000877F8093E8008091FE049091FF04892B75
:101F800059F468E08EEE94E070E008D88091E800A3
:101F90008B778093E800A1CF60E090E080E0F4CF01
:101FA0008091F8048111C1CF98CF8091FA04813AD1
:101FB00009F093CF8091FE049091FF04892B09F0E2
:101FC0008CCF8091E800877F8093E8008091E800C3
:101FD00080FFFCCF80917D018093F1008091E8002B
:101FE0008E77BACF8091FA04813209F076CF809152
:101FF000FE049091FF04892B09F06FCF8091E800D7
:10200000877F8093E8000E94230781E09091FC0481
:10201000911101C080E080937D0124DF5ECF80912B
:10202000FA04813209F059CF8091E800877F8093CC
:10203000E8000E9423078091FD0480937B014DCF2F
:102040008091FA04813A09F048CF8091E800877FB7
:102050008093E8008091E80080FFFCCF80917B01B5
:10206000BBCF803899F0823809F0C2C18091FE045C
:102070008F70873008F0BCC18093E9008091EB003D
:1020800085FB882780F91092E90006C08091F6044C
:102090009091F704911182609091E800977F90935E
:1020A000E8008093F1001092F1008091E8008E77B3
:1020B0009BC1882309F489C1823009F099C18091BC
:1020C000FC0481118CC18091FE048F702FEF280FCA
:1020D000263008F08DC18093E9002091EB0020FFAD
:1020E0007EC1933031F48091EB0080628093EB00ED
:1020F00076C19091EB0090619093EB0021E030E08D
:1021000001C0220F8A95EAF72093EA001092EA00B4
:102110008091EB008860EACF81116AC11091FC04C4
:102120001F778091E3008078812B8093E30080917A
:10213000E800877F8093E8000E9423078091E800F1
:1021400080FFFCCF8091E30080688093E30082E011
:10215000111183E08093F8044BC18058823008F05D
:1021600047C18091FC049091FD048C3D23E09207CF
:10217000A1F583E08A838AE289834FB7F894DE0170
:10218000139620E03EE051E2E32FF0E05093570039
:10219000E49120FF03C0E295EF703F5FEF708E2F58
:1021A00090E0EA30C0F0C7968D939D932F5F243165
:1021B00059F74FBF8091E800877F8093E8006AE27B
:1021C00070E0CE0101960E94CE078091E8008B77E7
:1021D0008093E8000DC1C096E7CF4091FE04509176
:1021E000FF04292F33272330310509F444C078F543
:1021F0002130310509F46FC08BE390E0E2E2F7E0B3
:102200002230310509F0F4C02091E800277F2093A7
:10221000E80020910005309101058217930708F42A
:102220009C0140E02115310509F064C0411162C0F4
:102230008091E80082FDC9CF8091F804882329F2BB
:10224000853019F28091E80083FFF2CFBECF2132B2
:102250003105A9F12232310509F0CAC041155105F5
:1022600009F443C04130510509F0C2C08FE690E047
:10227000EFE6F6E0C9CF992781309105C1F00097CC
:1022800059F0029709F0B4C0EFE6F7E0E4918E2F21
:1022900090E0EFE6F7E007C0EFE8F7E0E4918E2F7B
:1022A00090E0EFE8F7E0009709F4A2C0ADCFEDE7CA
:1022B000F7E0E4918E2F90E0EDE7F7E0F4CF4115E1
:1022C000510571F04130510509F092C089E090E06C
:1022D000EDE4F7E099CF82E190E0EDE5F7E094CF0F
:1022E00089E090E0E4E3F7E08FCF84E490E0EEED66
:1022F000F6E08ACF8091F804882309F466CF853010
:1023000009F463CF8091E80083FD5FCF8091E800FE
:1023100082FD8ECF8091E80080FF84CF9091F30002
:102320008091F2002115310519F08830910550F0A7
:1023300041E0089709F040E08091E8008E778093B3
:10234000E80070CF44914093F1003196215031095B
:102350000196E8CF803809F04BC08091E800877F74
:102360008093E8008091F9048093F1009ECE811162
:102370003FC01091FC041230D8F58091E800877FAF
:102380008093E8001093F9040E942307112311F0B1
:1023900084E005C08091E30087FDFACF81E080935F
:1023A000F80442E061EC81E00E94420742E261EC05
:1023B00082E00E9442078091F804843021F081E09D
:1023C00080937E0115C082E0FBCF8091FC048130B8
:1023D00079F481E0933009F080E08093F704109263
:1023E000E9008091E800877F8093E8000E9423073E
:1023F0008091E80083FF0AC08091E800877F809386
:10240000E8008091EB0080628093EB00AA96E3E005
:102410000C94B72C27DD88E19AE00FB6F894A895C4
:10242000809360000FBE90936000FFCF882311F06F
:1024300072DAC4CC0895882331F090912103982B4F
:1024400090932103BBCC0895882319F19CEF980F3A
:10245000913A18F40E944D08B1CC90E2980F983050
:1024600048F4877091E001C0990F8A95EAF7892FA7
:1024700052DAF2CF9BE5980F933020F490E080E0A1
:102480000C94D308885A8B3120F490E080E00C94AF
:10249000AC080895CF93C82F8823A9F18CEF8C0F37
:1024A000813A98F580917D018130F9F48091E604BC
:1024B00087FF1BC0EC2FE695E695E695F0E0E0552A
:1024C000FD4F828190E04C2F477021E030E002C048
:1024D000220F331F4A95E2F782239323892B79F049
:1024E0008C2F0E944D086ADC0AC0EAEAF2E080EB19
:1024F00092E02191C217A1F38E179F07D1F78C2F7D
:102500000E9478085BDCCF91089580E28C0F8830C0
:1025100068F4C77021E030E001C0220FCA95EAF7E5
:1025200080912103822B80932103ECCFEBE5EC0F0C
:10253000E33040F4F0E0EE57FE4F808190E00E94DF
:10254000D308E1CFC85ACB31F0F6EC2FF0E0EE0F14
:10255000FF1FEB57FE4F808191810E94AC08D3CFC3
:102560000F931F93CF93DF93EC01862FBA01F801ED
:10257000558126173707A1F49881552331F0911121
:1025800001C088DF82E0888304C0923039F0933044
:10259000B9F0DF91CF911F910F91089581E0F3CFB2
:1025A000552389F02132F2E53F0739F0243292E5D4
:1025B000390719F02830324561F79881992349F39A
:1025C000188242DFE6CF2132F2E53F0711F380F4B3
:1025D000203E310530F0243E3105D8F22830324516
:1025E000C1F29881913061F383E0923061F2D1CFF2
:1025F0002432F2E53F0769F2A0F320543E4724302D
:10260000310578F7C6CF0F931F93CF93DF938B01DC
:10261000EA019091F804943061F58093E9008FEF1E
:102620009091E800815095FD06C095ED9A95F1F7DF
:1026300000008111F5CF8091E80085FF1AC00E944B
:10264000F206811111C08091E80085FD06C08091DD
:10265000E8008E778093E800F2CFF80181918F0136
:102660008093F100219779F78091E8008E7780932D
:10267000E800DF91CF911F910F91089543E050E062
:10268000BC0182E0C0CF40E250E0BC0182E0BBCFA1
:10269000CF93DF93EC0148E050E0BC0181E0B3DF71
:1026A00088E0FE01AEEEB4E001900D928A95E1F76C
:1026B000DF91CF9108953BB1377F2BB128604FB7A1
:1026C000F89483EC93E0FC015191CF0168E02BB9C1
:1026D000000000C057FF3BB9550F000000C000C00C
:1026E00000C03BB900C06A9591F7F4E085369F07BA
:1026F00051F74FBF8FE594E00197F1F700C000005C
:102700000895B0E0A0E0E7E8F3E10C94942C7C019C
:102710005B016A018091580301E010E08A3010F4F7
:102720000AE010E0C1E0D0E0B501C701F60109956B
:10273000811104C021960C171D072CF4CDB7DEB70C
:10274000EAE00C94B02CCC9F9001CD9F300D300D61
:10275000112490E080E045E34A95F1F700000196EE
:1027600082179307C1F7E0CFAB0124E630E0BC014C
:1027700088E70E944A2A21E0892B09F020E0822F75
:1027800008958091C1039091C203911103C091E01B
:1027900089270895882361F062E070E08DE696E075
:1027A000E3DF811103C08091C10308951092C1033A
:1027B0008091C103ECCFCF93C091C1038091C2033C
:1027C0008823C9F00E943E08605A75418F4F9F4F81
:1027D0006093BD037093BE038093BF039093C003C7
:1027E000C11107C062E070E08BE696E0BDDF8111A9
:1027F00005C0C091C1038C2FCF91089581E08093D3
:10280000C103F7CFB0E0A0E0E8E0F4E10C94942C31
:102810000E944A0A6093B4037093B5038093B60391
:102820009093B7031091BC0320914101213029F10D
:10283000222359F0223009F459C1233009F45FC131
:10284000CDB7DEB7EAE00C94B02C10923E01609355
:10285000B8037093B9038093BA039093BB0390912C
:102860004F05892F837019F0892F8695869580935F
:10287000BC0381E080934101E3CF80913D011813B7
:1028800024C090914F05937020913C0130E081E08D
:102890009217130609F480E08170809340018091C3
:1028A000540590913F01981739F080933F0140E023
:1028B00060E080E00E940F0A113099F0112339F096
:1028C0001F3F09F4D8C080E02CC081E0E5CF8091A3
:1028D0004001882331F140E060E080E00E940F0A6F
:1028E000F2CF80913E010E94FB09A82E092FD090C3
:1028F000500540915105E0915205F0E0E559FA4F3D
:10290000411121C0C491DC2FFC2EB12C8091DF0439
:10291000A01608F48CC0882309F4A8C081E00B310C
:1029200090F690913E019F5F90933E018111DAC035
:1029300082E080934101809140018111D3C0111147
:10294000C4C083E097CFE42EF12CC491BC2EEC2FB1
:10295000F0E026E0D29EC00111242FEF30E0B90153
:102960000E94782C8D2D90E0880F991F55E5569F79
:10297000D001579FB00D11248A1B9B0BD82EDD0C64
:10298000D80ED901AE19BF09AE9FC001AF9F900DFF
:10299000BE9F900D1124D92F4D9DA0011124452FCC
:1029A0005527D901A41BB50BAE9FA001AF9F500DB9
:1029B000BE9F500D1124D901AD19B1096D01CE9CF6
:1029C000D001CF9CB00DDE9CB00D1124AB2FBB27E6
:1029D0002A1B3B0B2E9FD0012F9FB00D3E9FB00DA9
:1029E0001124FB2E62307105A1F050F461157105C0
:1029F00009F48BCF6130710581F0F92ED52F85CF89
:102A00006430710569F080F06630710509F47DCF9E
:102A1000F4CFC92FDB2FFB2C78CFFC2EC52F75CF21
:102A2000CB2FF92EDB2D71CFF52EC92FFBCFF50162
:102A3000D501A559BD4F9C9120913F01922331F0C2
:102A4000882341F0BBE1AB16B1044CF08FEFA81A1C
:102A5000B80A5CCF7B972BE1A216B104BCF32D2FF3
:102A60004F2D6C2FCF010E945209F0CF81E0063329
:102A700008F457CF28CF8091B8039091B903A09163
:102A8000BA03B091BB032AE0B695A79597958795B1
:102A90002A95D1F783709927AA27BB278230910501
:102AA000A105B105C1F083309105A105B105B1F0D3
:102AB00040E060E00197A105B10591F464E180E098
:102AC0000E940F0A82E08093410180913E01815073
:102AD0000E94FB09B5CE44E160E0F1CF44E164E13E
:102AE00084E1EECF112309F4ABCEEFCF10933D017B
:102AF00080914F05837080933C01DDDD22CF809172
:102B00005705882351F048E050E067E170E08FE41A
:102B100095E00E94332D10925705C090B803D090D5
:102B2000B903E090BA03F090BB038091DE048823E0
:102B300079F00E943E086C197D098E099F09603169
:102B400071058105910508F47BCE1092410178CE84
:102B50000E944A0AF0CFEFE4F5E085E0808380919F
:102B60007F0190918001A091810181839283A38351
:102B70008FE784838FEF858348E050E067E170E062
:102B8000CF010E94332D1092570508959091E704CC
:102B900092FB222720F9281779F080FB92F9909375
:102BA000E7046091E6047091E70484E090E00E94FD
:102BB0005C2D82E00C947D0D0895CF92DF92EF9210
:102BC000FF921F93CF93DF9300D000D0CDB7DEB735
:102BD000C0905003D0905103E0905203F090530303
:102BE0000E943E086C197D098E099F0911E0643628
:102BF00071058105910570F10E944A0A6E5F7F4F51
:102C00008F4F9F4F69837A838B839C8380911901B7
:102C100090911A01865C9C4F4091180150E045301C
:102C2000510510F044E050E0BE016F5F7F4F0E94FD
:102C30000D2D83E090E00E94082C182F882351F07E
:102C40000E943E0860935003709351038093520397
:102C500090935303812F0F900F900F900F90DF915F
:102C6000CF911F91FF90EF90DF90CF9008958F92BA
:102C70009F92AF92BF92EF92FF921F93CF93DF93F9
:102C800000D000D00F92CDB7DEB77B0190E080E09E
:102C90000E94082C182F882309F482C04091030158
:102CA00050E04115510511F041E050E06091040100
:102CB00070910501665C7C4FCE0105960E940D2D3A
:102CC0008090320390903303A0903403B09035038A
:102CD0000E943E08681979098A099B0964367105C2
:102CE0008105910540F48BE393E00E94BC069D8131
:102CF000891709F455C081E090E00E94082C8111E9
:102D00001EC010E080912E0390912F03A0913003FC
:102D1000B0913103F70180839183A283B383812F24
:102D20000F900F900F900F900F90DF91CF911F9108
:102D3000FF90EF90BF90AF909F908F90089540913B
:102D40000B0150E04530510510F044E050E0609137
:102D50000C0170910D01665C7C4FCE0101960E94C2
:102D60000D2D8BE393E00E94BC069D818913C9CF92
:102D70000E943E08609332037093330380933403C0
:102D80009093350389819A81AB81BC8180932E0316
:102D900090932F03A0933003B093310311E0B2CF8F
:102DA00080913B0390913C03A0913D03B0913E0381
:102DB00089839A83AB83BC831111E4CFA3CFB0E0A6
:102DC000A0E0E5EEF6E10C94922CC82F7B01D42F05
:102DD0006901FB0180809180A280B3800E943E083F
:102DE000681979098A099B0964367105810591057D
:102DF00010F4DD2359F10C2E000CDD0BFE0183E0F5
:102E0000EE0FFF1F8A95E1F7E050FF4F818192811D
:102E1000865C9C4F408150E00417150708F4A80118
:102E2000B6010E940D2DCE010E94082CC82F8823C8
:102E300039F00E943E08F701608371838283938397
:102E40008C2FCDB7DEB7ECE00C94AE2CC1E0F8CF00
:102E5000A9E0B0E0EEE2F7E10C949A2C88E0EFE410
:102E6000F5E0DE01119601900D928A95E1F7198641
:102E700049E050E067E473E0CE0101960E94002D26
:102E800041E0892B09F440E009E010E09E012F5F4A
:102E90003F4F64E573E084E092DF2996E4E00C9410
:102EA000B62C0F931F93CF93DF93EC0144E050E0D7
:102EB0006FE373E00E94002D41E0892B09F440E0AC
:102EC00004E010E09E0166E373E082E078DFDF91CA
:102ED000CF911F910F9108951F920F920FB60F92ED
:102EE00011242F933F934F935F936F937F938F930F
:102EF0009F93AF93BF93CF93DF93EF93FF93D091C3
:102F0000E900DF708091EC00C82FC17080FDC0E83F
:102F10001092E9008091F000877F8093F000789410
:102F20000E94500F1092E9008091F0008860809319
:102F3000F000CD2BCF70C093E900FF91EF91DF91AE
:102F4000CF91BF91AF919F918F917F916F915F9141
:102F50004F913F912F910F900FBE0F901F9018959A
:102F60001F920F920FB60F9211242F933F934F93FE
:102F70005F936F937F938F939F93AF93BF93EF93E1
:102F8000FF938091E10082FF09C08091E20082FFFF
:102F900005C08091E1008B7F8093E1008091DA0091
:102FA00080FF24C08091D80080FF20C08091DA008B
:102FB0008E7F8093DA008091D90080FFAAC080E1E3
:102FC00089BD82E189BD09B400FEFDCF81E0809317
:102FD000F8048091ED04811109C00E94D3060E947B
:102FE00074078091E20084608093E2008091E100A8
:102FF00080FF1AC08091E20080FF16C08091E2003D
:103000008E7F8093E2008091E20080618093E200F5
:103010008091D80080628093D80019BC85E08093AD
:10302000F80483E080937E018091E10084FF30C04A
:103030008091E20084FF2CC080E189BD82E189BDDE
:1030400099B5892F817090FFFBCF9091D8009F7D1B
:103050009093D8009091E1009F7E9093E100909131
:10306000E2009F7E9093E2009091E2009160909345
:10307000E2009091F904992309F451C094E09093EF
:10308000F8049091F804943009F482E080937E0172
:103090008091E10083FF2CC08091E20083FF28C073
:1030A0008091E100877F8093E10082E08093F804C3
:1030B0001092F9048091E1008E7F8093E10080916D
:1030C000E2008E7F8093E2008091E2008061809335
:1030D000E20042E060E080E00E9442078091F00060
:1030E00088608093F00081E080937E0180937D0171
:1030F000FF91EF91BF91AF919F918F917F916F91D0
:103100005F914F913F912F910F900FBE0F901F90A5
:10311000189519BC1092F8041092ED0467CF9091A5
:10312000E30097FD02C0982FAACF93E0A8CF789430
:103130001F921FB61F9211248F939F93AF93BF933B
:103140008091E9049091EA04A091EB04B091EC0421
:103150000196A11DB11D8093E9049093EA04A09308
:10316000EB04B093EC04BF91AF919F918F911F90AE
:103170001FBE1F9018952FB7F8948091E904909185
:10318000EA04A091EB04B091EC042FBF0895CF9313
:10319000DF93EC01F0DF8C1B9D0BDF91CF91089545
:1031A000EF92FF920F931F93CF93DF93C62FD42FED
:1031B000022FFC018581882399F060934E05DBDFA7
:1031C00090934D0580934C05C77081E001C0880F36
:1031D000CA95EAF730D9CDB7DEB7E6E00C94B42C47
:1031E00080914E05681331C0E0904C05F0904D057C
:1031F000C2DF8E199F09883C910538F510E21D0F3A
:10320000CD17A9F080E28C0F883038F4C77081E0C8
:1032100001C0880FCA95EAF709D9183040F481E057
:103220009D2F977001C0880F9A95EAF704D9802FD7
:1032300031D9802F09D9183070F6D77081E001C0DC
:10324000880FDA95EAF7F2D8C6CFC77081E001C0DF
:10325000880FCA95EAF7F7CFB0E0A0E0E2E3F9E122
:103260000C94952C7C01FC018481882309F482C094
:1032700061E0C7010E94F20DEC01F701858188230E
:1032800061F1818180938E03808180938D0380E240
:1032900080933401D0938C03C0938B03CE01905262
:1032A0008115904230F4F7018681807FB1F0FE01F4
:1032B0000BC0CE0190548115904108F03AC0F7013F
:1032C0008681807FFE0109F0FF27ED33F10528F4A8
:1032D000E452FF4FE491E093340187019E0140E402
:1032E0005EE761EE70E083ED92E03AD99E0141E441
:1032F0005EE760EE70E082ED92E032D99E0142E43A
:103300005EE762EE70E081ED92E02AD99E0143E42F
:103310005EE763EE70E080ED92E022D9FE01E851B5
:10332000FC47E730F10508F041C0E459F24D0C9438
:10333000F12CCE019A9581159F4108F4B8CFCE01AA
:10334000805A9245809748F2FE01BFCF26E241EEB7
:1033500061EEC70125DF8091F702877059F0F70110
:103360008581882339F08091E70482FF03C082E0E1
:103370000E947D0DCDB7DEB7E9E00C94B12C27E2B9
:1033800045EE65EEE6CF26E241EE60EEE2CF27E2C3
:1033900045EE64EEDECF26E241EE62EEDACF27E2C2
:1033A00045EE66EED6CF28E241E0EBCFF7019581FE
:1033B000992309F4DDC310924E059E013057233244
:1033C000310508F0C1C384E090E00E942E2D909357
:1033D000E7048093E604FE01E150F047E232F10594
:1033E00020F4ED58F24D0C94F12C8091E6048160AC
:1033F0008093E60495C08091E70488608093E70499
:103400008FC08091E6048260F3CF8091E6048460EF
:10341000EFCF8091E6048860EBCF8091E704816074
:10342000EDCF8091E7048260E9CF8091E60480616E
:10343000DFCF8091E6048062DBCF8091E604806478
:10344000D7CF0E94320F8091E6048068D1CF80915F
:10345000E6048C60CDCF8091E7048360CFCF80916C
:10346000E6048E7FC5CF8091E704877FC7CF809128
:10347000E6048D7FBDCF8091E6048B7FB9CF80912C
:10348000E604877FB5CF8091E7048E7FB7CF809128
:10349000E7048D7FB3CF8091E6048F7EA9CF809122
:1034A000E6048F7DA5CF8091E6048F7BA1CF0E949B
:1034B000320F8091E6048F779BCF8091E604837F63
:1034C00097CF8091E7048C7F99CF8091E60482FBAF
:1034D000992790F921E0922790FB82F990FB83F9DC
:1034E00087CF8091E704982F909591708E7F892BDC
:1034F00090FB81F983CF9091E604892F8F7B96FF13
:10350000806476CF0E94320F9091E604892F97FB5A
:1035100087F980586DCF61E08EE090E00E94422DE7
:103520006091E6047091E70484E090E00E945C2DD5
:103530000E94320F10CF60E0EFCF9091E604892F08
:103540008F7E94FF806154CF9091E604892F8E7F07
:1035500090FF81604DCF9091E704892F877F93FF83
:1035600088604CCF85E3FFC285E30BC30E94F2095C
:10357000F2CE882391F10E94DC09EDCE882391F1EF
:103580000E94CC09E8CE882391F10E94B609E3CECF
:10359000882391F10E94A009DECE882391F10E9438
:1035A0008E09D9CE80914F05837011F4109241019C
:1035B00080914F058C7F816080934F050E94880623
:1035C000CACE80914F05837011F010924101809115
:1035D0004F058C7FF1CF882371F20E94E709BBCEA3
:1035E000882371F20E94D409B6CE882371F20E941A
:1035F000C109B1CE882371F20E94AB09ACCE8823F9
:1036000071F20E949709A7CE882329F00E945F09D2
:10361000A2CE8823D9F30E9478099DCE9E01205E18
:10362000324520323105A8F4911115C0CF7181E0E7
:1036300090E09C0102C0220F331FCA95E2F7E90116
:10364000622F83E090E00E94422DCE010E94A10DE6
:1036500082CE992381F1CB353CE7D30799F0CC3565
:103660008CE7D80731F0CA35ECE7DE0769F481E072
:1036700007C08091E70482FB882780F991E08927C1
:1036800085DA69CE80E0FCCFC1303CE7D30789F012
:10369000C3308CE7D80739F0C115DC4761F40E94CC
:1036A000320F0E942D086FEF7FEF90E080E00E94C4
:1036B0005C2D0E940A12F701278130852115310502
:1036C00009F43DC0C9010E94740BD82FC92FF7011E
:1036D000B580068102950F708091F702877001F125
:1036E000DB2CBB20F1F0892F807F803461F080E2F9
:1036F0008D0F8830A8F0892F807E803221F4D2305F
:1037000078F0002369F08091E70482FF09C082E02D
:103710000E947D0D8091F7028770DD24D394811182
:10372000D12CCC2EC2948FE0C822FBE0FC1508F40B
:1037300077C0EC2DF0E0EB56F24D0C94F12CC081EB
:10374000D181992369F0CE010E94C30C182F682FF4
:10375000CE010E94320DBE01812F0E94550BB3CFC6
:10376000CE010E94FF0C182FF6CF1C2F1F70C07FB8
:1037700011F01295107FBB20B9F0112369F080E29F
:103780008D0F883010F0D11109C080912103182BC2
:10379000109321030E94DE0E8D2F40C0809167049C
:1037A000182B10936704F6CF8D2F0E94241211233B
:1037B000B9F180E28D0F883010F0D11104C0812F53
:1037C0000E948B0C06C010958091670418231093FB
:1037D00067040E94DE0E24C01C2F1F70C07FC03201
:1037E00011F01295107FDD2349F0D13009F458C053
:1037F000BB2009F462C0002351F1CECF8091E704D1
:1038000082FD21C0BB20C9F0112339F08091210332
:10381000182B109321030E94DE0E80E00E944A12B2
:10382000EC2DE850FF0B349708F076C10E94FA089F
:1038300060E0C7010E94F20D9DCD80E00E9424123D
:10384000112371F3BCCFBB2091F0011104C0812F73
:103850000E941B12E5CF013019F78091F802912FD9
:1038600098231917E9F2182B1093F802D9CF0111F8
:10387000D7CF812F0E9416129091F802812F8923B1
:1038800029F0812F809589238093F8028091D502B9
:10389000912F982329F2109518231093D502C0CFA9
:1038A000BB2021F0063008F0BBCFD1CF053008F0A7
:1038B000B7CF812F0E941612B3CF0023D1F3D93393
:1038C00049F42FEF37EE83E0215030408040E1F79C
:1038D00000C000008D2F0E942412A2CF8C2F86954D
:1038E0008695837069F0813009F09ACF8D2F9C2FD7
:1038F0009370B11002C080E090E00E94AC0890CFBD
:103900008D2F9C2F9370B11002C080E090E00E9438
:10391000D30886CF8C2F837009F03FC0B11080CFC1
:103920004D2F429546954770440F440F2D2F2F7011
:1039300030E0042E02C0220F331F0A94E2F790E019
:1039400080E0D4FF09C08FE090E002C0880F991F8B
:103950004A95E2F780959095C695C695C370C2309A
:1039600099F078F44091670350916803C13039F0C1
:10397000822B932B842395230E94A10D51CF242BBE
:10398000352B822B932BF8CF822B932B209167031F
:103990003091680382279327EFCF8695BB2011F0E3
:1039A0008C2F8170882309F43BCF4D2F429546958B
:1039B0004770440F440F2D2F2F7030E0042E02C0AB
:1039C000220F331F0A94E2F790E080E0D4FF09C091
:1039D0008FE090E002C0880F991F4A95E2F780952A
:1039E0009095C695C695C370C23099F078F4409111
:1039F000820350918303C13039F0822B932B8423AF
:103A000095230E94680D0CCF242B352B822B932BF2
:103A1000F8CF822B932B209182033091830382274E
:103A20009327EFCFCF70BB2029F08C2F0E94930DEE
:103A30008D2F0ECF8D2F0E9416128C2F0E946D0D90
:103A4000EFCED23F61F160F4D03FB9F0D13F81F0C9
:103A5000BB2009F451C001119FCE8C2F8F7123C060
:103A6000D33F21F1D43FA1F79091E70492FD2CC000
:103A70008C2F8F71BB2011F316C0BB2061F0053075
:103A800008F0CECECF7181E090E002C0880F991F80
:103A9000CA95E2F7C0CF063008F0C2CEF3CF8C2F24
:103AA0008F71B110CBCF0E94930DBACE90E080E021
:103AB000BB2009F4A6CFCF7181E090E002C0880F4F
:103AC000991FCA95E2F79DCFBB2061F08C2F8F71B3
:103AD00092FFE9CF98E0899F900111242360209301
:103AE000F702E1CF81E00E947D0D023008F498CE0C
:103AF00082E00E947D0D94CE002359F0D93309F065
:103B0000E9CEEFEFF7EE23E0E150F0402040E1F79F
:103B1000DFCE8C2F8F7192CFDD2009F489CE80917A
:103B2000F70280FD85CEF7011582869586958695EC
:103B30000E94930DC70190DB8091F70286958695D0
:103B400086950E946D0D74CE80912103C631FCE7ED
:103B5000DF07D1F48A7A91E009F490E09093D402DF
:103B6000811100CD89E20E9478080E94DE0EF3CB1D
:103B7000C6312CE7D207A1F48091D4028111F4CC94
:103B800089E20E944D08F1CF8272FE01E052F847AF
:103B9000EB30F10508F042CDEF55F24D0C94F12CCD
:103BA000809121038272FE01E054F847EF30F10565
:103BB00008F034CDE455F24D0C94F12CCF93DF9303
:103BC0008091F402807F09F04CC08091F302882339
:103BD00009F447C0E0914B0550910205C091EF02F6
:103BE000D091EE026091F0027091F10249E05E170F
:103BF000C1F18E2F90E0E49FF0011124ED5FFA4FA8
:103C00002481222389F1489FF001499FF00D11245E
:103C1000DF01AD5FBA4F11962C9111972C1324C080
:103C20002C912D1321C015962C91159721111CC094
:103C300012962D913C91261B370B283C3105A0F4A0
:103C40008091F4028F7080618093F402E75FFA4FF5
:103C500080818F70806180838EEE92E0FDDA0E9419
:103C6000B90CDF91CF910895FC013196E770BFCF79
:103C7000A8E1B0E0EEE3FEE10C94922C8C0186E02A
:103C8000F801DE01539601900D928A95E1F7F80153
:103C90008481E5809EEEA92E92E0B92E9091F202E9
:103CA000911126C0882309F1EE20E9F0C8010E9495
:103CB000A60DF82E8823B9F089E0F801D50101900E
:103CC0000D928A95E1F78091F202813031F4809172
:103CD000EE029091EF020E94F50C70DF8F2D689636
:103CE000ECE00C94AE2CC801B7DAFF24F394F6CFC5
:103CF000D080C18082809380F090F3022091F00206
:103D00003091F102A401421B530BFF2009F406C1BC
:103D1000483C510508F0B1C0882301F39091EF02AF
:103D20008091F402282F207F09F05DC0C9121CC0C9
:103D30009091EE02D91218C04091F5025091F6020E
:103D4000278130854217530779F4E11046C08F7000
:103D500080618093F4028EEE92E07EDA8091F4022C
:103D6000F8018683F12CBACFE11037C06C2D8D2D70
:103D70000E949D066C2D8D2D0E949D06E82E8111BE
:103D8000F1CFDB8ACC8A8B899C890E94F50C292F84
:103D900022952F70243058F49F70223080F09923A0
:103DA00091F0F8019681907F71F4FE2C97CF2A5FF5
:103DB0002F70223060F0C8014FDAEF2CF6CF992334
:103DC00011F0882391F3805E883078F3F4CF803F40
:103DD00060F3815F833078F7E8CF8091F4028160EF
:103DE0008093F402BFCFC9121BC09091EE02D9128A
:103DF00017C04091F5025091F60227813085421795
:103E0000530771F4E1100CC08683C80125DA89E0FC
:103E1000F801AEEEB2E001900D928A95E1F75ECF27
:103E2000C8010E94A60D882309F45DCFEE2009F495
:103E30005ACF8091F4028032B0F02091EE0230919E
:103E4000EF023B872A879D868C869091F2029E879F
:103E50001F86888B8091F5029091F6029A8B898B50
:103E6000CE010A96F9D989E0F801AEEEB2E00190F0
:103E70000D928A95E1F7A2DE38CF9091F402292FB6
:103E8000207F49F48EEE92E0E7D989E0F5011192A6
:103E90008A95E9F767CF882309F420CF8091EF0254
:103EA0008C1118C08091EE02D81214C04091F50216
:103EB0005091F602278130854217530759F4E110DB
:103EC00009C09683C801C8D989E0F50111928A9585
:103ED000E9F704CFC8010E94A60D882309F403CF97
:103EE000EE2009F400CF8091F402803208F4BBCFB9
:103EF0002091EE023091EF023A8329839C828B82DB
:103F00009091F2029D831E828F838091F5029091A1
:103F1000F60299878887CE010196A4CF483C5105C7
:103F200098F6882309F4E1CEFE2CEE2009F4DBCECE
:103F30008091EF028C1120C08091EE02D8121CC03B
:103F40002091F5023091F602878190852817390774
:103F500099F49091F40290FD5ACF907F09F457CFD5
:103F60008091F4028683903F09F44FCF982F907F81
:103F7000905F8F70892B48CFC8010E94A60D8111D8
:103F800072CF8091F40281608093F402C80164D9F9
:103F9000A5CEA2E1B0E0EFECFFE10C949A2C0A87E9
:103FA0001B872C873D874E875F87688B798B8A8B31
:103FB000CE010A965DDE81110CC089E0FE013A96C1
:103FC000DE01119601900D928A95E1F78E8581119F
:103FD0000BC019E080914B0590910205891331C007
:103FE0006296E4E00C94B62C2091020530E0C90101
:103FF00001968770992740914B054817190699F04B
:1040000099E0929FD001939FB00D1124AD5FBA4FFC
:10401000FE01319601900D929A95E1F78093020589
:104020000E94B90CD6CF0E94320F10920205109256
:104030004B0589E0EEEEF2E0DF011D928A95E9F78B
:10404000C8CF819FC00111248D5F9A4F11DE882354
:1040500039F280914B0590E0019687709927809303
:104060004B05B8CFEF92FF920F931F93CF93DF933F
:1040700080916904882361F0E09168048DE0F82E56
:1040800080916904E81748F010926904109268045E
:10409000CDB7DEB7E6E00C94B42CEE24E394EE0E3C
:1040A000E0926804CE2FD0E0EF9DF0011124E65994
:1040B000FB4F84818823E1F087819085892B21F44F
:1040C00081859285019651F400811181228133818D
:1040D000448155816681778180855BDFFC9EF0019C
:1040E000FD9EF00D1124E659FB4F148210926704D7
:1040F000EE2DC6CF1092DD041092DC0410927A01EE
:104100008091DB048093DA040E944009ABCFA9E0E0
:10411000B0E0EDE8F0E20C94982C7B01DB01129604
:104120008D919C91892BB9F087E0FE013196DF01DA
:104130001D928A95E9F71FD8282F8B839C83F7015E
:1041400082819381782F09811A813C8144E05E81CC
:104150006F81892F1EDFD70115961C922996E6E004
:104160000C94B42CB0E0A0E0E8EBF0E20C948C2CC2
:10417000C091DA04E7E08E2EEE24E394F12CADE05A
:104180009A2EB4E02B2E8091DB048C1308C06ADFDA
:104190000E944009CDB7DEB7E2E10C94A82CD0E034
:1041A000FE01EE0FFF1FEE52FB4F00811181B0E0C8
:1041B000A0E00830110538F4809ED001819EB00D3A
:1041C0001124AE5BBE4F14968C911497811158C088
:1041D000309069042AE634E090E080E0412C8315B9
:1041E00008F04BC0F901C384D4846D907C90119782
:1041F0004FEF5FEF512CA52CB12CF501EE0FFF1FF7
:10420000E60DF71D65917491C616D70609F4A50150
:10421000672B11F05394EFCF4F3F5407B1F1B70123
:1042200002C0660F771F4A95E2F7462AA701052CC0
:1042300002C0440F551F0A94E2F741505109441639
:10424000150609F512962D913C911397989EF00151
:10425000999EF00D1124E659FB4F30872783248265
:10426000108211821287018771E015967C93159751
:10427000571203C0BD01C8014ADFC8010E940D09E1
:104280002196C37080CFF90114820196235F3F4FBE
:10429000A6CFACE0B0E0EFE4F1E20C94912C8E01FB
:1042A0000F5F1F4F88E0D8011D928A95E9F78DEBCB
:1042B000C82E81E0D82EF12CE12CAA24A394B12C95
:1042C00027EC822E21E0922EF60181916F018F3F23
:1042D00009F442C0F894E82FE295EF70F0E021A1D4
:1042E0008F70A50102C0440F551F8A95E2F7CA01DD
:1042F000922F982B91A392A18095892382A37894E1
:1043000000C0E1ECF1E0712C31E021912F3F09F484
:10431000A3C0A22FA295AF70B0E090968C9190E0D0
:104320002F7002C0959587952A95E2F780FD94C07D
:10433000832F782A330F8E169F0639F7F6013197AF
:1043400080818F3F11F00E94330A50EA5A95F1F7AD
:10435000F801EE0DFF1D70828FEFE81AF80A94E065
:10436000E916F10409F0B0CF48E050E0B8018DE55E
:1043700093E00E94002D009741F028E0F801ADE5A0
:10438000B3E001900D922A95E1F70091660310E0E9
:1043900007591C4F892B09F461C081E080932603E3
:1043A0000E94BB189093250380932403F12CE09086
:1043B000DE04EE2009F4B0C019861A861B861C861E
:1043C000809158038A3008F06FC047E356E1BE0180
:1043D000675F7F4FC8010E948113882309F48BC057
:1043E00041E557E1BE01675F7F4FC8010E9481131D
:1043F000882309F480C04DED55E1BE01675F7F4F12
:10440000C8010E948113882309F475C048E257E16E
:10441000BE01675F7F4FC8010E948113882309F4A2
:104420006AC0109258038091650390E044E050E028
:10443000BE01675F7F4F87599C4F0E94002D21E08E
:1044400020932D03892B09F048C0E12C8E2D8F2954
:104450002C96EDE00C94AD2C80E06BCFF090260311
:10446000FF2009F4A3CFC0902403D09025030E941D
:10447000BB188C199D09059708F498CF44E050E0CB
:104480006DE573E0C8010E94002D892B59F084E08E
:10449000EDE5F3E0D80101900D928A95E1F71092D5
:1044A000260385CFF12CFBCFC0902703D0902803A3
:1044B0000E94BB188C199D09843F914008F085CF5C
:1044C00080912D03882309F2FE01399684E0DF01F3
:1044D0001D928A95E9F710922D03E0916503F0E0B3
:1044E000E759FC4F89859A85AB85BC85808391838C
:1044F000A283B383ABCF809158038F3F31F08F5F9E
:10450000809358038A3008F48ECF0E94BB18909392
:10451000280380932703D4CFC0906503D12CF601E4
:10452000E759FC4F6F0184E0F801ABE3B3E0019081
:104530000D928A95E1F78BE393E00E94BC0680938D
:104540003A0384E0EFE3F3E0D60101900D928A95FF
:10455000E1F78090430390904403A0904503B0900E
:1045600046038091290390912A03A0912B03B091D7
:104570002C0388169906AA06BB06B1F0809229037F
:1045800090922A03A0922B03B0922C030E943E0823
:10459000861A970AA80AB90A8092590390925A0378
:1045A000A0925B03B0925C0388E0E7E4F3E0AFE441
:1045B000B5E001900D928A95E1F748CFACE1B0E00B
:1045C000E4EEF2E20C948C2C4B8B5C8B6D8B7E8B2F
:1045D0008F8B988F911110926704188A198A1A8A02
:1045E00086E0FE017396DE011A9601900D928A957F
:1045F000E1F78E858823D9F061E0CE010A960E940A
:10460000F20D61E0CE010A960E94F20D61E0CE014A
:104610000A960E94F20D6C018F8520E5C2162CE7E8
:10462000D20681F4882319F181E080937A010A850A
:104630001B852C853D854E855F85688979898A89AA
:10464000A8DCD0C031E5C3163CE7D30621F48823AB
:1046500071F050DDECCF42E5C4164CE7D40639F4D6
:10466000882329F080917A018111F3CFDDCF02E414
:1046700011E0512CF12CE12C88248394912C4424BA
:104680004394F80140815181AA24AA94BA2C312C78
:10469000232D30E0F901EE0FFF1FE40FF51F859188
:1046A0009491C816D90609F45901892B11F0339455
:1046B000EFCF80E0FFEFAF16BF0609F455C0F80159
:1046C000248021100DC080917A01882349F08091C7
:1046D0008203909183030E94CE0D772473948111FD
:1046E000712CF72DF1707F2EF801658086819F85F2
:1046F000992309F400C1772009F4FDC0611014C0AA
:1047000094010A2C01C0220F0A94EAF7822B8683B7
:104710008091650490916604C29730F422E330E002
:104720003093660420936504C401032C02C0880FF3
:10473000991F0A94E2F70197F801268128171906B4
:1047400009F0CAC0A090DC04B090DD04A114B1044B
:1047500009F44CC00E94BB188A199B09C39708F43E
:1047600045C0F801448281E0582AFFEFEF1AFF0AA2
:10477000095F1F4F28E0E216F10409F082CF8F8510
:10478000882309F4F7C0552009F4F4C00E94BB182F
:104790009093DD048093DC0480916904883010F5E7
:1047A00091E0980F9093690499E0FE013A96DE013A
:1047B000119601900D929A95E1F73DE0839FC0011B
:1047C000112486599B4F29E0FE013196DC010190AE
:1047D0000D922A95E1F72FEF3FEFFC0132872187F9
:1047E000D486C3866C96E2E10C94A82C8091DA04FE
:1047F0006091DB04982FF0E0E0E0861314C0909302
:10480000DA04E017F10709F467C090E0FC01EE0F4D
:10481000FF1FEE52FB4FF182E082019683709927D1
:104820008093DB0459C0A82EB12CF501EE0FFF1FB9
:10483000EE52FB4F20813181B0E0A0E028303105FD
:1048400040F4F7E0F29FD001F39FB00D1124AE5B6E
:10485000BE4F2D913C9111973C8F2B8F312C70E0E6
:10486000612CE62DF0E0EE0FFF1F2B8D3C8DE20F4B
:10487000F31F2591349121153105E1F0F8010190E4
:10488000F081E02DFA8FE98F70E005C0241735071D
:1048900009F4372C7F5FE72FF0E0EE0FFF1F498D03
:1048A0005A8DE40FF51F459154914115510571F74B
:1048B0006394D7CF332029F0761530F0FD0110979F
:1048C00021F4F0E0E0E011C0F80144820E171F0768
:1048D00029F49093DA04732C872D46CF891305C0F1
:1048E000EA17FB0711F49F5F937095012F5F3F4F0D
:1048F000822F837082CF90E061101FC09401032C3F
:1049000002C0220F331F0A94E2F7215031098217A7
:10491000930729F4222061F1C7010E940D09C40107
:104920000A2C01C0880F0A94EAF7982F9095F80195
:10493000868189238683762CCFCF9C010A2C02C0E6
:10494000359527950A94E2F7A90141705527BC01D6
:104950006150710986239723892B31F4452B21F06F
:10496000B801C701D4DBDBCFF22FF1706F2ED7CFA8
:10497000672CD5CF9091DA048091DB04981731F041
:10498000F1DBF1E05F1609F42DCF51CE6BDB109215
:10499000DD041092DC040E944009F3CFA6E0B0E0F1
:1049A000E3EDF4E2C7C70E94BB188C01809122039B
:1049B000909123038017910779F019821A820E943F
:1049C000BB18682F49815A81792F80E090E0F6DD8D
:1049D00010932303009322032696E4E0C7C71F9297
:1049E0001FB61F9211248F939F93AF93BF93809113
:1049F000E804811113C08091E9049091EA04A09128
:104A0000EB04B091EC044196A11DB11D8093E90423
:104A10009093EA04A093EB04B093EC04BF91AF91A0
:104A20009F918F911F901FBE1F901895CDB7DEB735
:104A300028970FB6F894DEBF0FBECDBF85B780684C
:104A400085BF85B7806885BF84B7877F84BF0FB671
:104A5000F894A8958091600088618093600010921E
:104A600060000FBE80E890E00FB6F894809361007C
:104A7000909361000FBE81E080937E0181E39AE014
:104A80009093A7028093A6020E94D3060E94740707
:104A90008091E20084608093E20078948091F80431
:104AA0008823A1F01091E9001F709091EC00892FEC
:104AB000817090FD80E8182B1092E9008091E80049
:104AC00083FD0E94500F1F701093E90082E084BDA7
:104AD00093E095BD9AEF97BD80936E0010925903B5
:104AE00010925A0310925B0310925C038091D800DD
:104AF00080618093D8002AE12A95F1F700C0809167
:104B0000D900182F117080FD04C00E94D3061092A6
:104B1000F8041093DE041093DF0411118FC094E0A9
:104B20009093660384E0891B8093650384E90E9467
:104B3000330A86E60E94330A87E90E94330A86EC2C
:104B40000E94330A01EC11E087ECE82E81E0F82E98
:104B5000D8018D918D018F3F11F00E94330AE0162C
:104B6000F106B1F788E0E9E6F3E0DF01282F1D92B6
:104B70002A95E9F7EDE5F3E0DF011D928A95E9F763
:104B800090E080E06BD7833E9E4F79F163EE7EEF3D
:104B900090E080E091D760E082E090E073D781E020
:104BA00090E0909368038093670361E083E090E076
:104BB00069D760E074E184E090E07ED70E94AB1595
:104BC00040E050E0BA018FE090E06ED740E050E066
:104BD000BA0183E190E068D748E050E067E170E017
:104BE0008FE495E040D71092570582E090E02ED7F1
:104BF0008093790384E090E031D79093E704809329
:104C0000E60447DBEFEFF6E721E0E150F04020401B
:104C1000E1F700C000003DDB8091DF04E4E081119A
:104C2000E0E0F0E0E759FC4F808181FF0FC06FEFBB
:104C30007FEF90E080E040D70E942D0806D580915C
:104C4000DF04882309F46BCF90E06ACF83E090E023
:104C5000FDD690E00E94A10D0E945D0981E0809345
:104C6000570548E050E067E170E08FE495E0DED65C
:104C70001092570580914F058C7F11F40E94AB155F
:104C80008091DE048111D8C082E08093AF0380E878
:104C9000809358058CD36BE070E08FEE94E00E9417
:104CA000B4138823E9F18091AF0365E070E081FDE2
:104CB000C5C08AEE94E00E94B413882389F16DE0A8
:104CC00070E088ED94E00E94B413882349F10E94BB
:104CD0003E08605A75418F4F9F4F6093BD0370939C
:104CE000BE038093BF039093C003EBE5F5E080E043
:104CF00092E0DF019C011D9221503040E1F7F093DA
:104D00006207E09361078FEF9FEF90935A058093BE
:104D1000590581E08093C2038093C1031092B003D0
:104D20008091DE04811101C093D488E291E09093D8
:104D3000E3048093E20422242394312C8091F8042C
:104D400010E400E1A2E1FA2E853009F4D1C0A1DA25
:104D5000EAE7AE2EE3E0BE2EF9E68F2EF3E09F2EBB
:104D6000D401F50191918D9122E833E02E173F0790
:104D700009F4C8C09817B1F34090DE0471E7E72E3C
:104D800073E0F72ED12CD401CD904D01F501619047
:104D90005F016C1409F444C06C2410E000E0772437
:104DA0007394872D862199F1572C5C20442009F1BA
:104DB000D7018C9190E09101002E02C0220F331F89
:104DC0000A94E2F782239323892B99F40983DA82E8
:104DD0000E94BB189C838B83B1E0BD8391E051108E
:104DE00001C090E09E8349815A816B817C818D81D5
:104DF000E5DB51100CC0C101002E01C0880F0A94E0
:104E0000EAF7982F9095F701808189238083770CAA
:104E10000F5F1F4F0630110521F6F5013197C08253
:104E2000D394FFEFEF1AFF0A28E0D212ACCF0E9412
:104E30004A0ABB24B3946AC080E027CF85EE94E091
:104E40003ACF8091F804843039F10E9402140E9414
:104E5000C1131092E80488E190E00FB6F894A89589
:104E6000809360000FBE1093600083B7817F8460E1
:104E700083BF83B7816083BF7894889583B78E7F23
:104E800083BF0FB6F894A8958091600088618093E5
:104E90006000109260000FBEFCD9E9E6F3E0A1E7E4
:104EA000B3E080E021912D9391E0211101C090E0C9
:104EB000892B93E0E137F907A9F78823C9F080919E
:104EC000F7048823A9F009BDF9BC09B400FEFDCFA1
:104ED0008091D8008F7D8093D8008091E00082601F
:104EE0008093E0008091E00081FDFCCF0E94320FB2
:104EF0008091F804853009F4A4CF0E94320F0E94FB
:104F0000FA0825CF981338CF49DDB12C8091DE0403
:104F1000882331F180917A01882311F10091DC041A
:104F20001091DD0401151105D9F00E94BB18801BFA
:104F3000910B20916504309166042817390780F49D
:104F40009091DA048091DB04981709F444C00AD9DF
:104F500010926604109265041092DD041092DC0435
:104F60000E9402148091C203882309F49CC000911E
:104F7000B1031091B2030E94BB18801B910BC29722
:104F800008F471C00E94BB189093B2038093B103E0
:104F90008BE595E090936207809361078091DE0432
:104FA000882309F4D7C08BE195E00E949D0E809183
:104FB0008203909183030E94CE0D813009F482C058
:104FC000882369F0823009F480C0833009F480C0FE
:104FD0008AEF94E006C046D80E944009BDCF83E125
:104FE00095E00E94DB0E80918E03805D0E941E0E74
:104FF00089E295E00E949D0E80918D03805D0E9464
:105000001E0E85E295E00E949D0E40908B0350900D
:105010008C0380913201909133014816590609F0B2
:105020005AC080918A03803209F055C0E4E8F3E069
:105030008F0181918032E1F3F80101900020E9F7BE
:105040009F012150310979010E151F0508F47CC01C
:1050500083E295E00E949D0E809134010E941E0E15
:1050600081E00E94AA0E8091590590915A05892BE2
:1050700009F075C08091C1038823A9F00E943E0801
:105080000091BD031091BE032091BF033091C00376
:10509000601B710B820B930B6F3F7F4F8F4F9F47AE
:1050A00010F40E94C113B1100E94DB130E94FA0891
:1050B0009091B303891709F441CE8093B3030E9402
:1050C0003E083CCE8DE095E08CCF87E095E089CF1F
:1050D00080E095E086CF509233014092320180E229
:1050E00080938A03712C612C1092890354E8C52E99
:1050F00053E0D52E6FE7E62E63E0F62E8601C3015E
:10510000B2012AE030E040E050E049D4605D603315
:1051100019F4C016D10631F0411451046104710430
:1051200009F460E2D80114966C93C301B2012AE03D
:1051300030E040E050E033D429013A010150110938
:10514000E016F106E1F672CFD8018D918D010E9433
:105150001E0E7ACF8BE295E00E949D0E84CF809147
:10516000C203882309F486CF8091B003811182CFD6
:105170000E94DB132091590530915A052115310504
:1051800009F478CF80E0882E912C3101082E02C0DE
:10519000660C771C0A94E2F7A30142235323452BA4
:1051A00011F48F5FF0CF9091AF0390FF95C0880FFF
:1051B000880F880F8093370110923A01895F80939E
:1051C000380183E080933B0124E630E047E050E083
:1051D00065E371E088E71FD1892B09F04BCF95E09B
:1051E000880C991C9A95E1F78091AF0380FF86C0E7
:1051F000EFE8F3E080E2DF011D928A95E9F7EBEC3E
:10520000F1E0F887EF8387ECC82E81E0D82E07E025
:10521000AF81B8852D91B887AF83F60141906F01BA
:10522000480C592C511CC201855A9A4F2C01E22F6F
:10523000F0E0E157FC4F90E080E0E02EE81A122DFC
:10524000082E01C0110F0A94EAF7A20170E0DA01FA
:105250006D91AD0161232E2D271B2770F22E022E9A
:10526000000C330BB62F01C0BB0FFA94EAF7FB2EEC
:105270003195219531092770332701C066952A950C
:10528000EAF7F62A6081F62AF0827F5F7830F9F635
:10529000019631968830910581F6EF81F885EF5CB3
:1052A000F14009F0B5CF04E610E020E230E04FE82D
:1052B00053E060E488E72FD1892B09F0DBCE6094BE
:1052C00070948091590590915A05682279227092C4
:1052D0005A0560925905CECE8295880F80768093CC
:1052E00037019401369527953695279520933A01F5
:1052F000815E8093380120933B0166CFA401455A1B
:105300005A4F04E610E020E230E0D3CFEF92FF9254
:105310000F931F93CF93DF93182FEB011092BC00D4
:1053200084EA8093BC000E94BB187C018091BC0081
:1053300087FF27C08091B900887F883029F080914D
:10534000B900887F803181F51093BB0084E8809399
:10535000BC000E94BB188C018091BC0087FF1DC05F
:105360002091B900287F90E080E0283191F081E021
:1053700090E0203411F490E080E0919581959109BE
:1053800008C0C7010E94C718C817D90778F68EEF62
:105390009FEFCDB7DEB7E6E0E7C2C8010E94C718AD
:1053A000C817D907C8F6F3CF8FEF9FEFF2CF10924F
:1053B000B9008CE08093B80008950F931F93CF93AA
:1053C000DF93EB018093BB0084E88093BC000E94D4
:1053D000BB188C018091BC0087FF11C02091B900DF
:1053E000287F81E090E0283211F490E080E09195F0
:1053F00081959109DF91CF911F910F910895CF3F32
:10540000DC0741F3C8010E94C718C817D90710F775
:105410008EEF9FEFEFCFB0E0A0E0E0E1FAE281C2D3
:10542000782E5B016A0189010E94BB184C01C1E022
:10543000D0E00431110550F0C5E0D0E00F3F100777
:1054400029F0C80164E170E053D2EB01BE01872D61
:105450005DDF7C0197FF09C00F3F1007B9F3C4015E
:105460000E94C7180817190788F7E501CA0CDB1C4A
:10547000CC15DD0511F0F7FE08C084E98093BC006F
:10548000C701CDB7DEB7EDE068C2B801899195DFFD
:105490007C01EECFB0E0A0E0EFE4FAE242C2782E69
:1054A0005B016A0189010E94BB184C01C1E0D0E098
:1054B0000431110550F0C5E0D0E00F3F100729F08E
:1054C000C80164E170E014D2EB01BE01872D1EDF3C
:1054D0007C0197FF09C00F3F1007B9F3C4010E9478
:1054E000C7180817190788F7E501CA0CDB1CCC158B
:1054F000DD0511F0F7FE08C084E98093BC00C70108
:10550000CDB7DEB7EDE029C2FE018491B80155DFC9
:105510007C012196ECCFB0E0A0E0E0E9FAE200C225
:10552000682E762E5A0169010E94BB184C01C1E019
:10553000D0E00431110550F0C5E0D0E00F3F100776
:1055400029F0C80164E170E0D3D1EB01BE01862DE2
:10555000DDDE7C0197FF1BC00F3F1007B9F3C401CC
:105560000E94C7180817190788F784E98093BC00C0
:10557000C701CDB7DEB7EEE0EFC1B80189911DDFFD
:105580007C01CC16DD0689F3F7FEF7CFEECFB8012C
:10559000872D13DF7C01E501CA0CDB1CF2CF8EE105
:1055A0004A9B02C08150E1F74A9BFECF08955A986A
:1055B00080E28A95F1F75A9A0895FC013BE03A950A
:1055C000F1F798E020E080E031E040E14A95F1F722
:1055D000880F4A9B02C08160232742E04A95F1F779
:1055E000000040E14A95F1F7915079F790E19A95E2
:1055F000F1F799B132E03A95F1F7000040E14A95B0
:10560000F1F792FB992790F992272081920F9083CE
:105610000895A1E0B0E0EEE0FBE28AC119828C01BE
:105620007C01E60EF11C0E151F0539F481E099810D
:10563000911180E02196E6E097C1B1DFCE0101969D
:10564000BCDFF80181938F01EECF529A5A9A0895E8
:1056500052985A9AEA9AE9E6F0E080818F7C80833A
:1056600008956150770B91E001C0990F6A95EAF7B0
:1056700020E031E0911108C0222391F05A9A80E293
:105680008A95F1F75A980895492F482339F05A9A84
:10569000232740E24A95F1F79695ECCF5A98F9CF37
:1056A0005A98EDCFFF920F931F93CF93DF93EC01A6
:1056B0008C01060F111DC017D10721F4CDB7DEB73D
:1056C000E5E053C1F99073DF68E08F2DCADFF3CFB7
:1056D0001F920F920FB60F9211240F931F932F93C7
:1056E0003F934F935F936F937F938F939F93AF936A
:1056F000BF93EF93FF93CF93DF930F92CDB7DEB7B6
:1057000019824DDFCE01019658DF082F06950695C8
:105710000695282F22952570902F9570290F922F8E
:10572000937026952695920F982797708981982BCC
:1057300009F058C0063008F055C080E18A95F1F7AD
:105740005A9A529A82E08A95F1F700C05A9888E0F6
:10575000089F80011124D801A050BF4F1696ED91EB
:10576000FC9117973097A9F06091BB017091BC0133
:1057700014962D913C911597260F371F11968D91F8
:105780009C911297680F791F13964C9113978C91E7
:105790000995F801E050FF4F6381662349F020919D
:1057A000BB013091BC0184819581820F931F7ADF08
:1057B000FEDE80E18A95F1F75A9852985A9A80E174
:1057C0008A95F1F7F801E050FF4F6081662349F0B8
:1057D0002091BB013091BC0181819281820F931F86
:1057E00018DFDDDE0F90DF91CF91FF91EF91BF9138
:1057F000AF919F918F917F916F915F914F913F9169
:105800002F911F910F910F900FBE0F901F90189521
:105810000F931F93CF93DF93EC0106970CF049C0D1
:10582000F894529A5A9885E08A95F1F700009C2FD7
:10583000969595708C2F8570980F892F837096950B
:10584000969523E0CC0FDD1F2A95E1F7980F8E0186
:10585000092BADDE00C068E0802F03DF80E18A9570
:10586000F1F752985A9A4A9B1DC087E090E04A99F6
:105870001BC0FE01E050FF4F63816623F1F02091D1
:10588000BB013091BC0184819581820F931FC1DEE1
:10589000811113C0529A5A9A7894DF91CF911F9137
:1058A0000F91089500C0DFCF019729F4529A5A9AB8
:1058B000789480E0F2CF00C0DACF71DE80E28A9582
:1058C000F1F75A98529A80E18A95F1F7C050DF4F6C
:1058D0006881662349F02091BB013091BC01898128
:1058E0009A81820F931FDEDE62DE789481E0D5CF4D
:1058F000AA1BBB1B51E107C0AA1FBB1FA617B707F6
:1059000010F0A61BB70B881F991F5A95A9F7809511
:105910009095BC01CD0108952F923F924F925F92D6
:105920006F927F928F929F92AF92BF92CF92DF92AF
:10593000EF92FF920F931F93CF93DF93CDB7DEB714
:10594000CA1BDB0B0FB6F894DEBF0FBECDBF0994A8
:105950002A88398848885F846E847D848C849B84FF
:10596000AA84B984C884DF80EE80FD800C811B810D
:10597000AA81B981CE0FD11D0FB6F894DEBF0FBE3C
:10598000CDBFED010895991B79E004C0991F9617CA
:1059900008F0961B881F7A95C9F780950895A1E2B3
:1059A0001A2EAA1BBB1BFD010DC0AA1FBB1FEE1F99
:1059B000FF1FA217B307E407F50720F0A21BB30BE4
:1059C000E40BF50B661F771F881F991F1A9469F760
:1059D00060957095809590959B01AC01BD01CF01BC
:1059E0000895EE0FFF1F0590F491E02D0994FB013F
:1059F000DC0102C005900D9241505040D8F7089547
:105A0000FB01DC0104C08D910190801921F441500B
:105A10005040C8F7881B990B0895FB01DC0102C0B8
:105A200001900D9241505040D8F70895DC01CB0110
:105A3000FC01F999FECF06C0F2BDE1BDF89A31969E
:105A400000B40D9241505040B8F70895F999FECF37
:105A500092BD81BDF89A992780B50895A8E1B0E07C
:105A600042E050E0E5CFDC01A40FB51F41505040AB
:105A700040F0CB01840F951F2E9105D0415050402E
:105A8000D8F70895262FF999FECF92BD81BDF89AD7
:105A9000019700B4021639F01FBA20BD0FB6F89472
:105AA000FA9AF99A0FBE08950396272FECDFEADFE2
:105AB000252FE9DF242FE7CF0196272FE4DFE2CF60
:105AC000F894FFCF31105910F8115910F8118C10BB
:105AD000AD10F811AA11B711C319C719A619BF192A
